{
  "contractName": "Asset",
  "abi": [
    {
      "inputs": [
        {
          "internalType": "address",
          "name": "_link",
          "type": "address"
        },
        {
          "internalType": "address",
          "name": "_holder",
          "type": "address"
        }
      ],
      "stateMutability": "nonpayable",
      "type": "constructor"
    },
    {
      "anonymous": false,
      "inputs": [
        {
          "indexed": false,
          "internalType": "string",
          "name": "callbackName",
          "type": "string"
        },
        {
          "indexed": false,
          "internalType": "bool",
          "name": "data",
          "type": "bool"
        }
      ],
      "name": "CallbackInvokeEvent",
      "type": "event"
    },
    {
      "anonymous": false,
      "inputs": [
        {
          "indexed": false,
          "internalType": "string",
          "name": "callbackName",
          "type": "string"
        },
        {
          "indexed": false,
          "internalType": "uint256",
          "name": "data",
          "type": "uint256"
        }
      ],
      "name": "CallbackInvokeEvent",
      "type": "event"
    },
    {
      "anonymous": false,
      "inputs": [
        {
          "indexed": true,
          "internalType": "bytes32",
          "name": "id",
          "type": "bytes32"
        }
      ],
      "name": "ChainlinkCancelled",
      "type": "event"
    },
    {
      "anonymous": false,
      "inputs": [
        {
          "indexed": true,
          "internalType": "bytes32",
          "name": "id",
          "type": "bytes32"
        }
      ],
      "name": "ChainlinkFulfilled",
      "type": "event"
    },
    {
      "anonymous": false,
      "inputs": [
        {
          "indexed": true,
          "internalType": "bytes32",
          "name": "id",
          "type": "bytes32"
        }
      ],
      "name": "ChainlinkRequested",
      "type": "event"
    },
    {
      "anonymous": false,
      "inputs": [
        {
          "indexed": false,
          "internalType": "string",
          "name": "functionName",
          "type": "string"
        },
        {
          "indexed": false,
          "internalType": "int8",
          "name": "identity",
          "type": "int8"
        }
      ],
      "name": "LogEvent",
      "type": "event"
    },
    {
      "anonymous": false,
      "inputs": [
        {
          "indexed": true,
          "internalType": "address",
          "name": "previousOwner",
          "type": "address"
        },
        {
          "indexed": true,
          "internalType": "address",
          "name": "newOwner",
          "type": "address"
        }
      ],
      "name": "OwnershipTransferred",
      "type": "event"
    },
    {
      "anonymous": false,
      "inputs": [
        {
          "indexed": false,
          "internalType": "address",
          "name": "addr",
          "type": "address"
        },
        {
          "indexed": false,
          "internalType": "uint256",
          "name": "amount",
          "type": "uint256"
        }
      ],
      "name": "RecieveEth",
      "type": "event"
    },
    {
      "anonymous": false,
      "inputs": [
        {
          "indexed": false,
          "internalType": "enum Asset.Stage",
          "name": "from",
          "type": "uint8"
        },
        {
          "indexed": false,
          "internalType": "enum Asset.Stage",
          "name": "to",
          "type": "uint8"
        }
      ],
      "name": "StageChangeEvent",
      "type": "event"
    },
    {
      "anonymous": false,
      "inputs": [
        {
          "indexed": false,
          "internalType": "enum Base.State",
          "name": "from",
          "type": "uint8"
        },
        {
          "indexed": false,
          "internalType": "enum Base.State",
          "name": "to",
          "type": "uint8"
        }
      ],
      "name": "StateChangeEvent",
      "type": "event"
    },
    {
      "inputs": [
        {
          "internalType": "address",
          "name": "",
          "type": "address"
        }
      ],
      "name": "addr2gas",
      "outputs": [
        {
          "internalType": "uint256",
          "name": "",
          "type": "uint256"
        }
      ],
      "stateMutability": "view",
      "type": "function"
    },
    {
      "inputs": [
        {
          "internalType": "bytes32",
          "name": "_requestId",
          "type": "bytes32"
        },
        {
          "internalType": "uint256",
          "name": "_payment",
          "type": "uint256"
        },
        {
          "internalType": "bytes4",
          "name": "_callbackFunctionId",
          "type": "bytes4"
        },
        {
          "internalType": "uint256",
          "name": "_expiration",
          "type": "uint256"
        }
      ],
      "name": "cancelRequest",
      "outputs": [],
      "stateMutability": "nonpayable",
      "type": "function"
    },
    {
      "inputs": [
        {
          "internalType": "enum Base.State",
          "name": "_state",
          "type": "uint8"
        }
      ],
      "name": "changeState",
      "outputs": [],
      "stateMutability": "nonpayable",
      "type": "function"
    },
    {
      "inputs": [
        {
          "internalType": "address",
          "name": "_oracle",
          "type": "address"
        },
        {
          "internalType": "bytes32",
          "name": "_jobId",
          "type": "bytes32"
        },
        {
          "internalType": "uint256",
          "name": "_payment",
          "type": "uint256"
        },
        {
          "internalType": "bytes4",
          "name": "_callback",
          "type": "bytes4"
        },
        {
          "internalType": "string",
          "name": "_url",
          "type": "string"
        },
        {
          "internalType": "string",
          "name": "_path",
          "type": "string"
        }
      ],
      "name": "createRequestTo",
      "outputs": [
        {
          "internalType": "bytes32",
          "name": "requestId",
          "type": "bytes32"
        }
      ],
      "stateMutability": "nonpayable",
      "type": "function"
    },
    {
      "inputs": [
        {
          "internalType": "address",
          "name": "_oracle",
          "type": "address"
        },
        {
          "internalType": "bytes32",
          "name": "_jobId",
          "type": "bytes32"
        },
        {
          "internalType": "uint256",
          "name": "_payment",
          "type": "uint256"
        },
        {
          "internalType": "bytes4",
          "name": "_callback",
          "type": "bytes4"
        },
        {
          "internalType": "string",
          "name": "_url",
          "type": "string"
        },
        {
          "internalType": "string",
          "name": "_path",
          "type": "string"
        },
        {
          "internalType": "int256",
          "name": "_times",
          "type": "int256"
        }
      ],
      "name": "createRequestTo",
      "outputs": [
        {
          "internalType": "bytes32",
          "name": "requestId",
          "type": "bytes32"
        }
      ],
      "stateMutability": "nonpayable",
      "type": "function"
    },
    {
      "inputs": [],
      "name": "data",
      "outputs": [
        {
          "internalType": "bool",
          "name": "",
          "type": "bool"
        }
      ],
      "stateMutability": "view",
      "type": "function"
    },
    {
      "inputs": [],
      "name": "deFreeze",
      "outputs": [],
      "stateMutability": "nonpayable",
      "type": "function"
    },
    {
      "inputs": [],
      "name": "freeze",
      "outputs": [],
      "stateMutability": "nonpayable",
      "type": "function"
    },
    {
      "inputs": [],
      "name": "getChainlinkToken",
      "outputs": [
        {
          "internalType": "address",
          "name": "",
          "type": "address"
        }
      ],
      "stateMutability": "view",
      "type": "function"
    },
    {
      "inputs": [],
      "name": "identity",
      "outputs": [
        {
          "internalType": "int8",
          "name": "",
          "type": "int8"
        }
      ],
      "stateMutability": "view",
      "type": "function"
    },
    {
      "inputs": [
        {
          "internalType": "address",
          "name": "_link",
          "type": "address"
        }
      ],
      "name": "initLinkAddress",
      "outputs": [],
      "stateMutability": "nonpayable",
      "type": "function"
    },
    {
      "inputs": [],
      "name": "metaData",
      "outputs": [
        {
          "internalType": "address",
          "name": "holder",
          "type": "address"
        },
        {
          "internalType": "uint256",
          "name": "price",
          "type": "uint256"
        },
        {
          "internalType": "enum Asset.Stage",
          "name": "stage",
          "type": "uint8"
        },
        {
          "internalType": "uint256",
          "name": "bidPrice",
          "type": "uint256"
        },
        {
          "internalType": "address",
          "name": "buyer",
          "type": "address"
        },
        {
          "internalType": "string",
          "name": "id",
          "type": "string"
        }
      ],
      "stateMutability": "view",
      "type": "function"
    },
    {
      "inputs": [],
      "name": "owner",
      "outputs": [
        {
          "internalType": "address",
          "name": "",
          "type": "address"
        }
      ],
      "stateMutability": "view",
      "type": "function"
    },
    {
      "inputs": [],
      "name": "renounceOwnership",
      "outputs": [],
      "stateMutability": "nonpayable",
      "type": "function"
    },
    {
      "inputs": [],
      "name": "state",
      "outputs": [
        {
          "internalType": "enum Base.State",
          "name": "",
          "type": "uint8"
        }
      ],
      "stateMutability": "view",
      "type": "function"
    },
    {
      "inputs": [],
      "name": "trType",
      "outputs": [
        {
          "internalType": "enum Asset.TransactionType",
          "name": "",
          "type": "uint8"
        }
      ],
      "stateMutability": "view",
      "type": "function"
    },
    {
      "inputs": [
        {
          "internalType": "address",
          "name": "newOwner",
          "type": "address"
        }
      ],
      "name": "transferOwnership",
      "outputs": [],
      "stateMutability": "nonpayable",
      "type": "function"
    },
    {
      "inputs": [],
      "name": "withdrawLink",
      "outputs": [],
      "stateMutability": "nonpayable",
      "type": "function"
    },
    {
      "inputs": [
        {
          "internalType": "int8",
          "name": "_identity",
          "type": "int8"
        }
      ],
      "name": "setIdentify",
      "outputs": [],
      "stateMutability": "nonpayable",
      "type": "function"
    },
    {
      "inputs": [
        {
          "internalType": "enum Asset.Stage",
          "name": "_stage",
          "type": "uint8"
        }
      ],
      "name": "changeStageTo",
      "outputs": [],
      "stateMutability": "nonpayable",
      "type": "function"
    },
    {
      "inputs": [],
      "name": "returnBuyerEth",
      "outputs": [],
      "stateMutability": "nonpayable",
      "type": "function"
    },
    {
      "inputs": [],
      "name": "transformAllEthToHolder",
      "outputs": [],
      "stateMutability": "nonpayable",
      "type": "function"
    },
    {
      "inputs": [
        {
          "internalType": "bytes32",
          "name": "_hash",
          "type": "bytes32"
        }
      ],
      "name": "setFileHash",
      "outputs": [],
      "stateMutability": "nonpayable",
      "type": "function"
    },
    {
      "inputs": [
        {
          "internalType": "uint256",
          "name": "_price",
          "type": "uint256"
        }
      ],
      "name": "setPrice",
      "outputs": [],
      "stateMutability": "nonpayable",
      "type": "function"
    },
    {
      "inputs": [
        {
          "internalType": "bytes32",
          "name": "_requestId",
          "type": "bytes32"
        },
        {
          "internalType": "uint256",
          "name": "_data",
          "type": "uint256"
        }
      ],
      "name": "callback",
      "outputs": [],
      "stateMutability": "nonpayable",
      "type": "function"
    },
    {
      "inputs": [
        {
          "internalType": "enum Asset.TransactionType",
          "name": "_type",
          "type": "uint8"
        }
      ],
      "name": "buy",
      "outputs": [],
      "stateMutability": "payable",
      "type": "function"
    },
    {
      "inputs": [
        {
          "internalType": "bytes32",
          "name": "_requestId",
          "type": "bytes32"
        },
        {
          "internalType": "bool",
          "name": "_valid",
          "type": "bool"
        }
      ],
      "name": "buyOracleReqCallback",
      "outputs": [],
      "stateMutability": "nonpayable",
      "type": "function"
    },
    {
      "inputs": [],
      "name": "writeThough",
      "outputs": [],
      "stateMutability": "nonpayable",
      "type": "function"
    },
    {
      "inputs": [
        {
          "internalType": "bytes32",
          "name": "_requestId",
          "type": "bytes32"
        },
        {
          "internalType": "bool",
          "name": "_isOk",
          "type": "bool"
        }
      ],
      "name": "writeThoughCallback",
      "outputs": [],
      "stateMutability": "nonpayable",
      "type": "function"
    }
  ],
  "bytecode": "0x608060405260016004553480156200001657600080fd5b5060405162003dbc38038062003dbc833981810160405260408110156200003c57600080fd5b8101908080519060200190929190805190602001909291905050506000620000696200036a60201b60201c565b905080600660006101000a81548173ffffffffffffffffffffffffffffffffffffffff021916908373ffffffffffffffffffffffffffffffffffffffff1602179055508073ffffffffffffffffffffffffffffffffffffffff16600073ffffffffffffffffffffffffffffffffffffffff167f8be0079c531659141344cd1fd0a4f28419497f9722a3daafe3b4186f6b6457e060405160405180910390a3506001600660146101000a81548160ff021916908360018111156200012857fe5b02179055506200013e826200037260201b60201c565b6040518060c001604052808273ffffffffffffffffffffffffffffffffffffffff16815260200160008152602001600060058111156200017a57fe5b815260200160008152602001600073ffffffffffffffffffffffffffffffffffffffff1681526020016040518060400160405280600481526020017f6e756c6c00000000000000000000000000000000000000000000000000000000815250815250600860008201518160000160006101000a81548173ffffffffffffffffffffffffffffffffffffffff021916908373ffffffffffffffffffffffffffffffffffffffff1602179055506020820151816001015560408201518160020160006101000a81548160ff021916908360058111156200025457fe5b02179055506060820151816003015560808201518160040160006101000a81548173ffffffffffffffffffffffffffffffffffffffff021916908373ffffffffffffffffffffffffffffffffffffffff16021790555060a0820151816005019080519060200190620002c8929190620006f3565b50905050620002dd33620003d360201b60201c565b7f9cbdc030d7e10e1d77476681d873022ca9fa38c6b7e71ff8d09664618e09aa4d600660159054906101000a900460000b60405180806020018360000b60000b81526020018281038252600b8152602001807f636f6e7374727563746f720000000000000000000000000000000000000000008152506020019250505060405180910390a15050620007a2565b600033905090565b600073ffffffffffffffffffffffffffffffffffffffff168173ffffffffffffffffffffffffffffffffffffffff161415620003be57620003b8620005db60201b60201c565b620003d0565b620003cf816200068560201b60201c565b5b50565b620003e36200036a60201b60201c565b73ffffffffffffffffffffffffffffffffffffffff1662000409620006c960201b60201c565b73ffffffffffffffffffffffffffffffffffffffff161462000493576040517f08c379a00000000000000000000000000000000000000000000000000000000081526004018080602001828103825260208152602001807f4f776e61626c653a2063616c6c6572206973206e6f7420746865206f776e657281525060200191505060405180910390fd5b600073ffffffffffffffffffffffffffffffffffffffff168173ffffffffffffffffffffffffffffffffffffffff1614156200051b576040517f08c379a000000000000000000000000000000000000000000000000000000000815260040180806020018281038252602681526020018062003d966026913960400191505060405180910390fd5b8073ffffffffffffffffffffffffffffffffffffffff16600660009054906101000a900473ffffffffffffffffffffffffffffffffffffffff1673ffffffffffffffffffffffffffffffffffffffff167f8be0079c531659141344cd1fd0a4f28419497f9722a3daafe3b4186f6b6457e060405160405180910390a380600660006101000a81548173ffffffffffffffffffffffffffffffffffffffff021916908373ffffffffffffffffffffffffffffffffffffffff16021790555050565b6200068373c89bd4e1632d3a43cb03aaad5262cbe4038bc57173ffffffffffffffffffffffffffffffffffffffff166338cc48316040518163ffffffff1660e01b815260040160206040518083038186803b1580156200063a57600080fd5b505afa1580156200064f573d6000803e3d6000fd5b505050506040513d60208110156200066657600080fd5b81019080805190602001909291905050506200068560201b60201c565b565b80600260006101000a81548173ffffffffffffffffffffffffffffffffffffffff021916908373ffffffffffffffffffffffffffffffffffffffff16021790555050565b6000600660009054906101000a900473ffffffffffffffffffffffffffffffffffffffff16905090565b828054600181600116156101000203166002900490600052602060002090601f016020900481019282601f106200073657805160ff191683800117855562000767565b8280016001018555821562000767579182015b828111156200076657825182559160200191906001019062000749565b5b5090506200077691906200077a565b5090565b6200079f91905b808211156200079b57600081600090555060010162000781565b5090565b90565b6135e480620007b26000396000f3fe6080604052600436106101c25760003560e01c806373d4a13a116100f7578063b23418fa11610095578063de97412b11610064578063de97412b14610b37578063ec65d0f814610b7e578063f2fde38b14610bf6578063f79e329214610c47576101c2565b8063b23418fa14610987578063baf2a4eb146109ce578063c19d93fb14610ae7578063d8ad194214610b20576101c2565b806391b7f5ed116100d157806391b7f5ed146108a65780639fd48252146108e1578063abb0b796146108f8578063b10ea73d14610949576101c2565b806373d4a13a146108095780638da5cb5b146108385780638dc654a21461088f576101c2565b8063444282de1161016457806362a5af3b1161013e57806362a5af3b146104315780636d8958ed146104485780636f2879d214610618578063715018a6146107f2576101c2565b8063444282de146103785780634b0ca5e8146103bd5780634c84d954146103f6576101c2565b8063268f1153116101a0578063268f11531461028d5780632c159a1a146102cb57806335190dd1146102fc5780633cb523cb14610313576101c2565b806314107f3c146101c7578063165d35e1146101f85780632362bd501461024f575b600080fd5b6101f6600480360360208110156101dd57600080fd5b81019080803560ff169060200190929190505050610c5e565b005b34801561020457600080fd5b5061020d610fa2565b604051808273ffffffffffffffffffffffffffffffffffffffff1673ffffffffffffffffffffffffffffffffffffffff16815260200191505060405180910390f35b34801561025b57600080fd5b5061028b6004803603602081101561027257600080fd5b81019080803560000b9060200190929190505050610fb1565b005b34801561029957600080fd5b506102c9600480360360208110156102b057600080fd5b81019080803560ff169060200190929190505050610fd2565b005b3480156102d757600080fd5b506102e0611077565b604051808260000b60000b815260200191505060405180910390f35b34801561030857600080fd5b5061031161108a565b005b34801561031f57600080fd5b506103626004803603602081101561033657600080fd5b81019080803573ffffffffffffffffffffffffffffffffffffffff1690602001909291905050506111b2565b6040518082815260200191505060405180910390f35b34801561038457600080fd5b506103bb6004803603604081101561039b57600080fd5b8101908080359060200190929190803590602001909291905050506111ca565b005b3480156103c957600080fd5b506103d261135a565b604051808260018111156103e257fe5b60ff16815260200191505060405180910390f35b34801561040257600080fd5b5061042f6004803603602081101561041957600080fd5b810190808035906020019092919050505061136d565b005b34801561043d57600080fd5b50610446611370565b005b34801561045457600080fd5b50610602600480360360c081101561046b57600080fd5b81019080803573ffffffffffffffffffffffffffffffffffffffff169060200190929190803590602001909291908035906020019092919080357bffffffffffffffffffffffffffffffffffffffffffffffffffffffff19169060200190929190803590602001906401000000008111156104e557600080fd5b8201836020820111156104f757600080fd5b8035906020019184600183028401116401000000008311171561051957600080fd5b91908080601f016020809104026020016040519081016040528093929190818152602001838380828437600081840152601f19601f8201169050808301925050505050505091929192908035906020019064010000000081111561057c57600080fd5b82018360208201111561058e57600080fd5b803590602001918460018302840111640100000000831117156105b057600080fd5b91908080601f016020809104026020016040519081016040528093929190818152602001838380828437600081840152601f19601f8201169050808301925050505050505091929192905050506114ba565b6040518082815260200191505060405180910390f35b34801561062457600080fd5b506107dc600480360360e081101561063b57600080fd5b81019080803573ffffffffffffffffffffffffffffffffffffffff169060200190929190803590602001909291908035906020019092919080357bffffffffffffffffffffffffffffffffffffffffffffffffffffffff19169060200190929190803590602001906401000000008111156106b557600080fd5b8201836020820111156106c757600080fd5b803590602001918460018302840111640100000000831117156106e957600080fd5b91908080601f016020809104026020016040519081016040528093929190818152602001838380828437600081840152601f19601f8201169050808301925050505050505091929192908035906020019064010000000081111561074c57600080fd5b82018360208201111561075e57600080fd5b8035906020019184600183028401116401000000008311171561078057600080fd5b91908080601f016020809104026020016040519081016040528093929190818152602001838380828437600081840152601f19601f8201169050808301925050505050505091929192908035906020019092919050505061157d565b6040518082815260200191505060405180910390f35b3480156107fe57600080fd5b5061080761168b565b005b34801561081557600080fd5b5061081e6117fb565b604051808215151515815260200191505060405180910390f35b34801561084457600080fd5b5061084d61180e565b604051808273ffffffffffffffffffffffffffffffffffffffff1673ffffffffffffffffffffffffffffffffffffffff16815260200191505060405180910390f35b34801561089b57600080fd5b506108a4611838565b005b3480156108b257600080fd5b506108df600480360360208110156108c957600080fd5b8101908080359060200190929190505050611ae1565b005b3480156108ed57600080fd5b506108f6611aee565b005b34801561090457600080fd5b506109476004803603602081101561091b57600080fd5b81019080803573ffffffffffffffffffffffffffffffffffffffff169060200190929190505050611b24565b005b34801561095557600080fd5b506109856004803603602081101561096c57600080fd5b81019080803560ff169060200190929190505050611b73565b005b34801561099357600080fd5b506109cc600480360360408110156109aa57600080fd5b8101908080359060200190929190803515159060200190929190505050611c0f565b005b3480156109da57600080fd5b506109e3611d8a565b604051808773ffffffffffffffffffffffffffffffffffffffff1673ffffffffffffffffffffffffffffffffffffffff168152602001868152602001856005811115610a2b57fe5b60ff1681526020018481526020018373ffffffffffffffffffffffffffffffffffffffff1673ffffffffffffffffffffffffffffffffffffffff16815260200180602001828103825283818151815260200191508051906020019080838360005b83811015610aa7578082015181840152602081019050610a8c565b50505050905090810190601f168015610ad45780820380516001836020036101000a031916815260200191505b5097505050505050505060405180910390f35b348015610af357600080fd5b50610afc611e99565b60405180826001811115610b0c57fe5b60ff16815260200191505060405180910390f35b348015610b2c57600080fd5b50610b35611eac565b005b348015610b4357600080fd5b50610b7c60048036036040811015610b5a57600080fd5b8101908080359060200190929190803515159060200190929190505050611edd565b005b348015610b8a57600080fd5b50610bf460048036036080811015610ba157600080fd5b81019080803590602001909291908035906020019092919080357bffffffffffffffffffffffffffffffffffffffffffffffffffffffff19169060200190929190803590602001909291905050506121b3565b005b348015610c0257600080fd5b50610c4560048036036020811015610c1957600080fd5b81019080803573ffffffffffffffffffffffffffffffffffffffff169060200190929190505050612274565b005b348015610c5357600080fd5b50610c5c612469565b005b6001600860020160009054906101000a900460ff166005811115610c7e57fe5b816005811115610c8a57fe5b14610cfd576040517f08c379a00000000000000000000000000000000000000000000000000000000081526004018080602001828103825260128152602001807f6e6f74206578706563746564207374616765000000000000000000000000000081525060200191505060405180910390fd5b600860010154341015610d78576040517f08c379a00000000000000000000000000000000000000000000000000000000081526004018080602001828103825260088152602001807f556e64657262696400000000000000000000000000000000000000000000000081525060200191505060405180910390fd5b81600e60016101000a81548160ff02191690836001811115610d9657fe5b02179055503460086003018190555033600860040160006101000a81548173ffffffffffffffffffffffffffffffffffffffff021916908373ffffffffffffffffffffffffffffffffffffffff160217905550610df36002611b73565b600073c57b33452b4f7bb189bb5afae9cc4aba1f7a4fd8905060007f626337343636313165626565343061333938396262653439653132613032623990506000670de0b6b3a764000090506060600860050160405160200180806135176028913960280182805460018160011615610100020316600290048015610eae5780601f10610e8c576101008083540402835291820191610eae565b820191906000526020600020905b815481529060010190602001808311610e9a575b5050915050604051602081830303815290604052905060606040518060400160405280600481526020017f64617461000000000000000000000000000000000000000000000000000000008152509050610f1385858563de97412b60e01b86866114ba565b507f9cbdc030d7e10e1d77476681d873022ca9fa38c6b7e71ff8d09664618e09aa4d600660159054906101000a900460000b60405180806020018360000b60000b8152602001828103825260038152602001807f62757900000000000000000000000000000000000000000000000000000000008152506020019250505060405180910390a150505050505050565b6000610fac6125b2565b905090565b80600660156101000a81548160ff021916908360000b60ff16021790555050565b6000600660149054906101000a900460ff16905081600660146101000a81548160ff0219169083600181111561100457fe5b02179055507ff70ae5679dc434e74ba49b0a726590ff0cfb79a6c392efd998bf72125319d05081600660149054906101000a900460ff166040518083600181111561104b57fe5b60ff16815260200182600181111561105f57fe5b60ff1681526020019250505060405180910390a15050565b600660159054906101000a900460000b81565b600073c57b33452b4f7bb189bb5afae9cc4aba1f7a4fd8905060007f383362613964646339323739343631393866626430626631626438613863323590506000670de0b6b3a7640000905060606008600501604051602001808061356260259139602501828054600181600116156101000203166002900480156111455780601f10611123576101008083540402835291820191611145565b820191906000526020600020905b815481529060010190602001808311611131575b5050915050604051602081830303815290604052905060606040518060400160405280600481526020017f646174610000000000000000000000000000000000000000000000000000000081525090506111aa85858563b23418fa60e01b86866114ba565b505050505050565b60076020528060005260406000206000915090505481565b816005600082815260200190815260200160002060009054906101000a900473ffffffffffffffffffffffffffffffffffffffff1673ffffffffffffffffffffffffffffffffffffffff163373ffffffffffffffffffffffffffffffffffffffff1614611282576040517f08c379a00000000000000000000000000000000000000000000000000000000081526004018080602001828103825260288152602001806135876028913960400191505060405180910390fd5b6005600082815260200190815260200160002060006101000a81549073ffffffffffffffffffffffffffffffffffffffff0219169055807f7cc135e0cebb02c3480ae5d74d377283180a2601f8f644edf7987b009316c63a60405160405180910390a27f1642acb6c2908e4f89c1340d86bdc38b3238f8d539b48d4597d89039b86cdb64826040518080602001838152602001828103825260088152602001807f63616c6c6261636b0000000000000000000000000000000000000000000000008152506020019250505060405180910390a1505050565b600e60019054906101000a900460ff1681565b50565b6113786125dc565b73ffffffffffffffffffffffffffffffffffffffff1661139661180e565b73ffffffffffffffffffffffffffffffffffffffff161461141f576040517f08c379a00000000000000000000000000000000000000000000000000000000081526004018080602001828103825260208152602001807f4f776e61626c653a2063616c6c6572206973206e6f7420746865206f776e657281525060200191505060405180910390fd5b60016000600181111561142e57fe5b81600181111561143a57fe5b146114ad576040517f08c379a00000000000000000000000000000000000000000000000000000000081526004018080602001828103825260188152602001807f6e6f74206d61746368206578706563746564207374617465000000000000000081525060200191505060405180910390fd5b6114b76000610fd2565b50565b60006114c461344f565b6114cf8730876125e4565b905061151b6040518060400160405280600381526020017f75726c000000000000000000000000000000000000000000000000000000000081525085836126159092919063ffffffff16565b6115656040518060400160405280600481526020017f706174680000000000000000000000000000000000000000000000000000000081525084836126159092919063ffffffff16565b611570888288612648565b9150509695505050505050565b600061158761344f565b6115928830886125e4565b90506115de6040518060400160405280600381526020017f75726c000000000000000000000000000000000000000000000000000000000081525086836126159092919063ffffffff16565b6116286040518060400160405280600481526020017f706174680000000000000000000000000000000000000000000000000000000081525085836126159092919063ffffffff16565b6116726040518060400160405280600581526020017f74696d657300000000000000000000000000000000000000000000000000000081525084836129009092919063ffffffff16565b61167d898289612648565b915050979650505050505050565b6116936125dc565b73ffffffffffffffffffffffffffffffffffffffff166116b161180e565b73ffffffffffffffffffffffffffffffffffffffff161461173a576040517f08c379a00000000000000000000000000000000000000000000000000000000081526004018080602001828103825260208152602001807f4f776e61626c653a2063616c6c6572206973206e6f7420746865206f776e657281525060200191505060405180910390fd5b600073ffffffffffffffffffffffffffffffffffffffff16600660009054906101000a900473ffffffffffffffffffffffffffffffffffffffff1673ffffffffffffffffffffffffffffffffffffffff167f8be0079c531659141344cd1fd0a4f28419497f9722a3daafe3b4186f6b6457e060405160405180910390a36000600660006101000a81548173ffffffffffffffffffffffffffffffffffffffff021916908373ffffffffffffffffffffffffffffffffffffffff160217905550565b600e60009054906101000a900460ff1681565b6000600660009054906101000a900473ffffffffffffffffffffffffffffffffffffffff16905090565b6118406125dc565b73ffffffffffffffffffffffffffffffffffffffff1661185e61180e565b73ffffffffffffffffffffffffffffffffffffffff16146118e7576040517f08c379a00000000000000000000000000000000000000000000000000000000081526004018080602001828103825260208152602001807f4f776e61626c653a2063616c6c6572206973206e6f7420746865206f776e657281525060200191505060405180910390fd5b60006118f16125b2565b90508073ffffffffffffffffffffffffffffffffffffffff1663a9059cbb338373ffffffffffffffffffffffffffffffffffffffff166370a08231306040518263ffffffff1660e01b8152600401808273ffffffffffffffffffffffffffffffffffffffff1673ffffffffffffffffffffffffffffffffffffffff16815260200191505060206040518083038186803b15801561198d57600080fd5b505afa1580156119a1573d6000803e3d6000fd5b505050506040513d60208110156119b757600080fd5b81019080805190602001909291905050506040518363ffffffff1660e01b8152600401808373ffffffffffffffffffffffffffffffffffffffff1673ffffffffffffffffffffffffffffffffffffffff16815260200182815260200192505050602060405180830381600087803b158015611a3157600080fd5b505af1158015611a45573d6000803e3d6000fd5b505050506040513d6020811015611a5b57600080fd5b8101908080519060200190929190505050611ade576040517f08c379a00000000000000000000000000000000000000000000000000000000081526004018080602001828103825260128152602001807f556e61626c6520746f207472616e73666572000000000000000000000000000081525060200191505060405180910390fd5b50565b8060086001018190555050565b611b22600860040160009054906101000a900473ffffffffffffffffffffffffffffffffffffffff16600860030154612933565b565b600073ffffffffffffffffffffffffffffffffffffffff168173ffffffffffffffffffffffffffffffffffffffff161415611b6657611b6161297e565b611b70565b611b6f81612a1d565b5b50565b6000600860020160009054906101000a900460ff16905081600860020160006101000a81548160ff02191690836005811115611bab57fe5b02179055507f1a597829557af79eeb84ba19cfeb7a384f339c2950ae92fa8132b74cb680e92d818360405180836005811115611be357fe5b60ff168152602001826005811115611bf757fe5b60ff1681526020019250505060405180910390a15050565b816005600082815260200190815260200160002060009054906101000a900473ffffffffffffffffffffffffffffffffffffffff1673ffffffffffffffffffffffffffffffffffffffff163373ffffffffffffffffffffffffffffffffffffffff1614611cc7576040517f08c379a00000000000000000000000000000000000000000000000000000000081526004018080602001828103825260288152602001806135876028913960400191505060405180910390fd5b6005600082815260200190815260200160002060006101000a81549073ffffffffffffffffffffffffffffffffffffffff0219169055807f7cc135e0cebb02c3480ae5d74d377283180a2601f8f644edf7987b009316c63a60405160405180910390a281611d7257611d63600860040160009054906101000a900473ffffffffffffffffffffffffffffffffffffffff16600860030154612933565b611d6d6001611b73565b611d85565b611d7a611eac565b611d846000611b73565b5b505050565b60088060000160009054906101000a900473ffffffffffffffffffffffffffffffffffffffff16908060010154908060020160009054906101000a900460ff16908060030154908060040160009054906101000a900473ffffffffffffffffffffffffffffffffffffffff1690806005018054600181600116156101000203166002900480601f016020809104026020016040519081016040528092919081815260200182805460018160011615610100020316600290048015611e8f5780601f10611e6457610100808354040283529160200191611e8f565b820191906000526020600020905b815481529060010190602001808311611e7257829003601f168201915b5050505050905086565b600660149054906101000a900460ff1681565b611edb600860000160009054906101000a900473ffffffffffffffffffffffffffffffffffffffff1647612933565b565b816005600082815260200190815260200160002060009054906101000a900473ffffffffffffffffffffffffffffffffffffffff1673ffffffffffffffffffffffffffffffffffffffff163373ffffffffffffffffffffffffffffffffffffffff1614611f95576040517f08c379a00000000000000000000000000000000000000000000000000000000081526004018080602001828103825260288152602001806135876028913960400191505060405180910390fd5b6005600082815260200190815260200160002060006101000a81549073ffffffffffffffffffffffffffffffffffffffff0219169055807f7cc135e0cebb02c3480ae5d74d377283180a2601f8f644edf7987b009316c63a60405160405180910390a281600e60006101000a81548160ff0219169083151502179055507f8fb0441d5c1e2d11d5f98caf9438dbc634206fe25681334623b02a024868277782604051808060200183151515158152602001828103825260148152602001807f6275794f7261636c6552657143616c6c6261636b0000000000000000000000008152506020019250505060405180910390a1816120a257612093611aee565b61209d6001611b73565b6121ae565b600060018111156120af57fe5b600e60019054906101000a900460ff1660018111156120ca57fe5b1415612115576120d8611eac565b612106600860040160009054906101000a900473ffffffffffffffffffffffffffffffffffffffff16612a61565b6121106000611b73565b612128565b61211f6003611b73565b61212761108a565b5b7f9cbdc030d7e10e1d77476681d873022ca9fa38c6b7e71ff8d09664618e09aa4d600660159054906101000a900460000b60405180806020018360000b60000b8152602001828103825260148152602001807f6275794f7261636c6552657143616c6c6261636b0000000000000000000000008152506020019250505060405180910390a15b505050565b6121bb6125dc565b73ffffffffffffffffffffffffffffffffffffffff166121d961180e565b73ffffffffffffffffffffffffffffffffffffffff1614612262576040517f08c379a00000000000000000000000000000000000000000000000000000000081526004018080602001828103825260208152602001807f4f776e61626c653a2063616c6c6572206973206e6f7420746865206f776e657281525060200191505060405180910390fd5b61226e84848484612aa8565b50505050565b61227c6125dc565b73ffffffffffffffffffffffffffffffffffffffff1661229a61180e565b73ffffffffffffffffffffffffffffffffffffffff1614612323576040517f08c379a00000000000000000000000000000000000000000000000000000000081526004018080602001828103825260208152602001807f4f776e61626c653a2063616c6c6572206973206e6f7420746865206f776e657281525060200191505060405180910390fd5b600073ffffffffffffffffffffffffffffffffffffffff168173ffffffffffffffffffffffffffffffffffffffff1614156123a9576040517f08c379a00000000000000000000000000000000000000000000000000000000081526004018080602001828103825260268152602001806134f16026913960400191505060405180910390fd5b8073ffffffffffffffffffffffffffffffffffffffff16600660009054906101000a900473ffffffffffffffffffffffffffffffffffffffff1673ffffffffffffffffffffffffffffffffffffffff167f8be0079c531659141344cd1fd0a4f28419497f9722a3daafe3b4186f6b6457e060405160405180910390a380600660006101000a81548173ffffffffffffffffffffffffffffffffffffffff021916908373ffffffffffffffffffffffffffffffffffffffff16021790555050565b6124716125dc565b73ffffffffffffffffffffffffffffffffffffffff1661248f61180e565b73ffffffffffffffffffffffffffffffffffffffff1614612518576040517f08c379a00000000000000000000000000000000000000000000000000000000081526004018080602001828103825260208152602001807f4f776e61626c653a2063616c6c6572206973206e6f7420746865206f776e657281525060200191505060405180910390fd5b600080600181111561252657fe5b81600181111561253257fe5b146125a5576040517f08c379a00000000000000000000000000000000000000000000000000000000081526004018080602001828103825260188152602001807f6e6f74206d61746368206578706563746564207374617465000000000000000081525060200191505060405180910390fd5b6125af6001610fd2565b50565b6000600260009054906101000a900473ffffffffffffffffffffffffffffffffffffffff16905090565b600033905090565b6125ec61344f565b6125f461344f565b61260b85858584612c0b909392919063ffffffff16565b9150509392505050565b61262c828460800151612cbb90919063ffffffff16565b612643818460800151612cbb90919063ffffffff16565b505050565b600030600454604051602001808373ffffffffffffffffffffffffffffffffffffffff1673ffffffffffffffffffffffffffffffffffffffff1660601b815260140182815260200192505050604051602081830303815290604052805190602001209050600454836060018181525050836005600083815260200190815260200160002060006101000a81548173ffffffffffffffffffffffffffffffffffffffff021916908373ffffffffffffffffffffffffffffffffffffffff160217905550807fb5e6e01e79f91267dc17b4e6314d5d4d03593d2ceee0fbb452b750bd70ea5af960405160405180910390a2600260009054906101000a900473ffffffffffffffffffffffffffffffffffffffff1673ffffffffffffffffffffffffffffffffffffffff16634000aea0858461278087612ce0565b6040518463ffffffff1660e01b8152600401808473ffffffffffffffffffffffffffffffffffffffff1673ffffffffffffffffffffffffffffffffffffffff16815260200183815260200180602001828103825283818151815260200191508051906020019080838360005b838110156128075780820151818401526020810190506127ec565b50505050905090810190601f1680156128345780820380516001836020036101000a031916815260200191505b50945050505050602060405180830381600087803b15801561285557600080fd5b505af1158015612869573d6000803e3d6000fd5b505050506040513d602081101561287f57600080fd5b81019080805190602001909291905050506128e5576040517f08c379a000000000000000000000000000000000000000000000000000000000815260040180806020018281038252602381526020018061353f6023913960400191505060405180910390fd5b60016004600082825401925050819055508090509392505050565b612917828460800151612cbb90919063ffffffff16565b61292e818460800151612ee790919063ffffffff16565b505050565b8173ffffffffffffffffffffffffffffffffffffffff166108fc829081150290604051600060405180830381858888f19350505050158015612979573d6000803e3d6000fd5b505050565b612a1b73c89bd4e1632d3a43cb03aaad5262cbe4038bc57173ffffffffffffffffffffffffffffffffffffffff166338cc48316040518163ffffffff1660e01b815260040160206040518083038186803b1580156129db57600080fd5b505afa1580156129ef573d6000803e3d6000fd5b505050506040513d6020811015612a0557600080fd5b8101908080519060200190929190505050612a1d565b565b80600260006101000a81548173ffffffffffffffffffffffffffffffffffffffff021916908373ffffffffffffffffffffffffffffffffffffffff16021790555050565b80600860000160006101000a81548173ffffffffffffffffffffffffffffffffffffffff021916908373ffffffffffffffffffffffffffffffffffffffff16021790555050565b60006005600086815260200190815260200160002060009054906101000a900473ffffffffffffffffffffffffffffffffffffffff1690506005600086815260200190815260200160002060006101000a81549073ffffffffffffffffffffffffffffffffffffffff0219169055847fe1fe3afa0f7f761ff0a8b89086790efd5140d2907ebd5b7ff6bfcb5e075fd4c560405160405180910390a28073ffffffffffffffffffffffffffffffffffffffff16636ee4d553868686866040518563ffffffff1660e01b815260040180858152602001848152602001837bffffffffffffffffffffffffffffffffffffffffffffffffffffffff19167bffffffffffffffffffffffffffffffffffffffffffffffffffffffff19168152602001828152602001945050505050600060405180830381600087803b158015612bec57600080fd5b505af1158015612c00573d6000803e3d6000fd5b505050505050505050565b612c1361344f565b612c238560800151610100612f8b565b508385600001818152505082856020019073ffffffffffffffffffffffffffffffffffffffff16908173ffffffffffffffffffffffffffffffffffffffff16815250508185604001907bffffffffffffffffffffffffffffffffffffffffffffffffffffffff191690817bffffffffffffffffffffffffffffffffffffffffffffffffffffffff191681525050849050949350505050565b612cc88260038351612fdf565b612cdb818361316490919063ffffffff16565b505050565b6060600360009054906101000a900473ffffffffffffffffffffffffffffffffffffffff1673ffffffffffffffffffffffffffffffffffffffff166340429946905060e01b60008084600001518560200151866040015187606001516001896080015160000151604051602401808973ffffffffffffffffffffffffffffffffffffffff1673ffffffffffffffffffffffffffffffffffffffff1681526020018881526020018781526020018673ffffffffffffffffffffffffffffffffffffffff1673ffffffffffffffffffffffffffffffffffffffff168152602001857bffffffffffffffffffffffffffffffffffffffffffffffffffffffff19167bffffffffffffffffffffffffffffffffffffffffffffffffffffffff1916815260200184815260200183815260200180602001828103825283818151815260200191508051906020019080838360005b83811015612e4a578082015181840152602081019050612e2f565b50505050905090810190601f168015612e775780820380516001836020036101000a031916815260200191505b509950505050505050505050604051602081830303815290604052907bffffffffffffffffffffffffffffffffffffffffffffffffffffffff19166020820180517bffffffffffffffffffffffffffffffffffffffffffffffffffffffff83818316178352505050509050919050565b7fffffffffffffffffffffffffffffffffffffffffffffffff0000000000000000811215612f1e57612f198282613186565b612f87565b67ffffffffffffffff811315612f3d57612f3882826131f4565b612f86565b60008112612f5657612f5182600083612fdf565b612f85565b612f84826001837fffffffffffffffffffffffffffffffffffffffffffffffffffffffffffffffff03612fdf565b5b5b5b5050565b612f936134bc565b600060208381612f9f57fe5b0614612fb85760208281612faf57fe5b06602003820191505b81836020018181525050604051808452600081528281016020016040525082905092915050565b60178167ffffffffffffffff1611613016576130108160058460ff16901b60ff16178461324090919063ffffffff16565b5061315f565b60ff8167ffffffffffffffff161161306c57613045601860058460ff16901b178461324090919063ffffffff16565b506130668167ffffffffffffffff166001856132609092919063ffffffff16565b5061315e565b61ffff8167ffffffffffffffff16116130c35761309c601960058460ff16901b178461324090919063ffffffff16565b506130bd8167ffffffffffffffff166002856132609092919063ffffffff16565b5061315d565b63ffffffff8167ffffffffffffffff161161311c576130f5601a60058460ff16901b178461324090919063ffffffff16565b506131168167ffffffffffffffff166004856132609092919063ffffffff16565b5061315c565b613139601b60058460ff16901b178461324090919063ffffffff16565b5061315a8167ffffffffffffffff166008856132609092919063ffffffff16565b505b5b5b5b505050565b61316c6134bc565b61317e83846000015151848551613282565b905092915050565b6131a460036005600660ff16901b178361324090919063ffffffff16565b506131f082827fffffffffffffffffffffffffffffffffffffffffffffffffffffffffffffffff036040516020018082815260200191505060405160208183030381529060405261333b565b5050565b61321260026005600660ff16901b178361324090919063ffffffff16565b5061323c82826040516020018082815260200191505060405160208183030381529060405261333b565b5050565b6132486134bc565b6132588384600001515184613360565b905092915050565b6132686134bc565b6132798485600001515185856133ae565b90509392505050565b61328a6134bc565b825182111561329857600080fd5b846020015182850111156132c3576132c28560026132bc886020015188870161340f565b0261342b565b5b6000808651805187602083010193508088870111156132e25787860182525b60208701925050505b6020841061330e57805182526020820191506020810190506020840393506132eb565b60006001856020036101000a03905080198251168184511681811785525050879350505050949350505050565b6133488260028351612fdf565b61335b818361316490919063ffffffff16565b505050565b6133686134bc565b836020015183106133855761338484600286602001510261342b565b5b83518051602085830101848153818614156133a1576001820183525b5050508390509392505050565b6133b66134bc565b846020015184830111156133d4576133d38560028685010261342b565b5b60006001836101000a03905085518386820101858319825116178152815185880111156134015784870182525b505085915050949350505050565b60008183111561342157829050613425565b8190505b92915050565b60608260000151905061343e8383612f8b565b506134498382613164565b50505050565b6040518060a0016040528060008019168152602001600073ffffffffffffffffffffffffffffffffffffffff16815260200160007bffffffffffffffffffffffffffffffffffffffffffffffffffffffff19168152602001600081526020016134b66134d6565b81525090565b604051806040016040528060608152602001600081525090565b60405180604001604052806060815260200160008152509056fe4f776e61626c653a206e6577206f776e657220697320746865207a65726f206164647265737368747470733a2f2f6170692e7768682e62757a7a2f6170692f61737365742f76616c69643f69643d756e61626c6520746f207472616e73666572416e6443616c6c20746f206f7261636c6568747470733a2f2f6170692e7768682e62757a7a2f6170692f61737365742f74723f69643d536f75726365206d75737420626520746865206f7261636c65206f66207468652072657175657374a26469706673582212209c683116f984e3c1e05dc48af91598b2b5cfe1c0608482128331c9459fc2f0bb64736f6c634300060000334f776e61626c653a206e6577206f776e657220697320746865207a65726f2061646472657373",
  "source": "// SPDX-License-Identifier: MIT\npragma solidity >=0.4.22 <0.9.0;\n\nimport \"@chainlink/contracts/src/v0.6/ChainlinkClient.sol\";\nimport \"@openzeppelin/contracts/access/Ownable.sol\";\nimport {Base, LinkBase, ChainlinkBase} from \"./Base.sol\";\n\ncontract Asset is ChainlinkBase, Base {\n    enum Stage {\n        Frozen,\n        Normal,\n        Locked,\n        Waiting,\n        Cancelled_Lock,\n        Cancelled_Waiting\n    }\n    enum TransactionType {\n        Fast,\n        Through\n    }\n    // \n    struct MetaData {\n        address holder;\n        // uint256 creationTime;\n        uint256 price;\n        Stage stage;\n        uint256 bidPrice;\n        address buyer;\n        string id;\n    }\n    // for \n    int8 public identity;\n    mapping(address => uint256) public addr2gas;\n    MetaData public metaData;\n    //   \n    bool public data;\n    TransactionType public trType;\n    //  modifier\n    modifier atStage(Stage _stage) {\n        require(_stage == metaData.stage, \"not expected stage\");\n        _;\n    }\n    modifier requirePrice() {\n        require(msg.value >= metaData.price, \"Underbid\");\n        _;\n    }\n\n    function setIdentify(int8 _identity) public {\n        identity = _identity;\n    }\n\n    // \n    event StageChangeEvent(Stage from, Stage to);\n\n    // \n    function changeStageTo(Stage _stage) public {\n        Stage from = metaData.stage;\n        metaData.stage = _stage;\n        emit StageChangeEvent(from, _stage);\n    }\n\n    function transformEth(address _to, uint256 _value) private {\n        payable(_to).transfer(_value);\n    }\n\n    function returnBuyerEth() public {\n        transformEth(metaData.buyer, metaData.bidPrice);\n    }\n\n    function transformAllEthToHolder() public {\n        transformEth(metaData.holder, address(this).balance);\n    }\n\n    function transformHolder(address _addr) private {\n        metaData.holder = _addr;\n    }\n\n    function setFileHash(bytes32 _hash) public {\n        //todo\n    }\n\n    function setPrice(uint256 _price) public {\n        metaData.price = _price;\n    }\n\n    constructor(address _link, address _holder) public {\n        initLinkAddress(_link);\n        metaData = MetaData({\n            holder: _holder,\n            price: 0,\n            stage: Stage.Frozen,\n            bidPrice: 0,\n            buyer: address(0),\n            id: \"null\"\n        });\n        transferOwnership(msg.sender);\n        emit LogEvent(\"constructor\",identity);\n    }\n\n    function callback(bytes32 _requestId, uint256 _data)\n        public\n        recordChainlinkFulfillment(_requestId)\n    {\n        emit CallbackInvokeEvent(\"callback\", _data);\n    }\n\n    /**\n     *\n     *\n     *\n     *\n     */\n    function buy(TransactionType _type)\n        public\n        payable\n        atStage(Stage.Normal)\n        requirePrice\n    {\n        trType = _type;\n        metaData.bidPrice = msg.value;\n        metaData.buyer = msg.sender;\n        changeStageTo(Stage.Locked);\n        //  https://docs.chain.link/docs/decentralized-oracles-ethereum-mainnet/\n        address addr = address(0xc57B33452b4F7BB189bB5AfaE9cc4aBa1f7a4FD8);\n        bytes32 jobId = \"bc746611ebee40a3989bbe49e12a02b9\";\n        uint256 payment = 1000000000000000000;\n        // \n        string memory url = string(\n            abi.encodePacked(\n                \"https://api.whh.buzz/api/asset/valid?id=\",\n                metaData.id\n            )\n        );\n        string memory path = \"data\";\n        createRequestTo(\n            addr,\n            jobId,\n            payment,\n            this.buyOracleReqCallback.selector,\n            url,\n            path\n        );\n        emit LogEvent(\"buy\",identity);\n    }\n\n    //\n    function buyOracleReqCallback(bytes32 _requestId, bool _valid)\n        public\n        recordChainlinkFulfillment(_requestId)\n    {\n        data = _valid;\n        // emit LogEvent(msg.sender, _valid);\n        emit CallbackInvokeEvent(\"buyOracleReqCallback\", _valid);\n        if (!_valid) {\n            returnBuyerEth();\n            changeStageTo(Stage.Normal);\n            return;\n        }\n        if (trType == TransactionType.Fast) {\n            transformAllEthToHolder();\n            // transferOwnership(metaData.buyer);\n            transformHolder(metaData.buyer);\n            changeStageTo(Stage.Frozen);\n        } else {\n            changeStageTo(Stage.Waiting);\n            writeThough();\n        }\n        emit LogEvent(\"buyOracleReqCallback\",identity);\n    }\n\n    function writeThough() public {\n        address addr = address(0xc57B33452b4F7BB189bB5AfaE9cc4aBa1f7a4FD8);\n        bytes32 jobId = \"83ba9ddc927946198fbd0bf1bd8a8c25\";\n        uint256 payment = 1000000000000000000;\n        string memory url = string(\n            abi.encodePacked(\n                \"https://api.whh.buzz/api/asset/tr?id=\",\n                metaData.id\n            )\n        );\n        string memory path = \"data\";\n        createRequestTo(\n            addr,\n            jobId,\n            payment,\n            this.writeThoughCallback.selector,\n            url,\n            path\n        );\n    }\n\n    function writeThoughCallback(bytes32 _requestId, bool _isOk)\n        public\n        recordChainlinkFulfillment(_requestId)\n    {\n        if (!_isOk) {\n            transformEth(metaData.buyer, metaData.bidPrice);\n            changeStageTo(Stage.Normal);\n            return;\n        }\n        transformAllEthToHolder();\n        changeStageTo(Stage.Frozen);\n    }\n}\n",
  "sourcePath": "/Users/ywb/Documents/github/chainlink-docker/blockchain/contracts/Asset.sol",
  "compiler": {
    "name": "solc",
    "version": "0.6.0+commit.26b70077.Emscripten.clang"
  },
  "schemaVersion": "3.4.3",
  "updatedAt": "2022-03-31T15:31:31.940Z",
  "devdoc": {
    "methods": {
      "cancelRequest(bytes32,uint256,bytes4,uint256)": {
        "params": {
          "_callbackFunctionId": "The bytes4 callback function ID specified for the request to cancel",
          "_expiration": "The expiration generated for the request to cancel",
          "_payment": "The payment specified for the request to cancel",
          "_requestId": "The ID that was generated for the request to cancel"
        }
      },
      "createRequestTo(address,bytes32,uint256,bytes4,string,string)": {
        "details": "This function ignores the stored Oracle contract address and will instead send the request to the address specified",
        "params": {
          "_jobId": "The bytes32 JobID to be executed",
          "_oracle": "The Oracle contract address to send the request to",
          "_path": "The dot-delimited path to parse of the response",
          "_url": "The URL to fetch data from"
        }
      },
      "createRequestTo(address,bytes32,uint256,bytes4,string,string,int256)": {
        "details": "This function ignores the stored Oracle contract address and will instead send the request to the address specified",
        "params": {
          "_jobId": "The bytes32 JobID to be executed",
          "_oracle": "The Oracle contract address to send the request to",
          "_path": "The dot-delimited path to parse of the response",
          "_times": "The number to multiply the result by",
          "_url": "The URL to fetch data from"
        }
      },
      "getChainlinkToken()": {
        "details": "This is the public implementation for chainlinkTokenAddress, which is an internal method of the ChainlinkClient contract"
      },
      "owner()": {
        "details": "Returns the address of the current owner."
      },
      "renounceOwnership()": {
        "details": "Leaves the contract without owner. It will not be possible to call `onlyOwner` functions anymore. Can only be called by the current owner.     * NOTE: Renouncing ownership will leave the contract without an owner, thereby removing any functionality that is only available to the owner."
      },
      "transferOwnership(address)": {
        "details": "Transfers ownership of the contract to a new account (`newOwner`). Can only be called by the current owner."
      }
    }
  },
  "userdoc": {
    "methods": {
      "buy(uint8)": {
        "notice": "*     *"
      },
      "cancelRequest(bytes32,uint256,bytes4,uint256)": {
        "notice": "Call this method if no response is received within 5 minutes"
      },
      "createRequestTo(address,bytes32,uint256,bytes4,string,string)": {
        "notice": "Creates a request to the specified Oracle contract address"
      },
      "createRequestTo(address,bytes32,uint256,bytes4,string,string,int256)": {
        "notice": "Creates a request to the specified Oracle contract address"
      },
      "getChainlinkToken()": {
        "notice": "Returns the address of the LINK token"
      },
      "withdrawLink()": {
        "notice": "Allows the owner to withdraw any LINK balance on the contract"
      }
    }
  }
}