{
  "contractName": "AssetDemo",
  "abi": [
    {
      "inputs": [
        {
          "internalType": "address",
          "name": "_link",
          "type": "address"
        },
        {
          "internalType": "string",
          "name": "_did",
          "type": "string"
        },
        {
          "internalType": "address",
          "name": "_owner",
          "type": "address"
        },
        {
          "internalType": "string",
          "name": "_imgUrl",
          "type": "string"
        },
        {
          "internalType": "string",
          "name": "_name",
          "type": "string"
        }
      ],
      "stateMutability": "nonpayable",
      "type": "constructor"
    },
    {
      "anonymous": false,
      "inputs": [
        {
          "indexed": false,
          "internalType": "address",
          "name": "_contract",
          "type": "address"
        },
        {
          "indexed": false,
          "internalType": "address",
          "name": "_buyer",
          "type": "address"
        }
      ],
      "name": "AssetCheckFailed",
      "type": "event"
    },
    {
      "anonymous": false,
      "inputs": [
        {
          "indexed": false,
          "internalType": "string",
          "name": "name",
          "type": "string"
        },
        {
          "indexed": false,
          "internalType": "string",
          "name": "url",
          "type": "string"
        },
        {
          "indexed": false,
          "internalType": "string",
          "name": "did",
          "type": "string"
        },
        {
          "indexed": false,
          "internalType": "address",
          "name": "owner",
          "type": "address"
        },
        {
          "indexed": false,
          "internalType": "uint256",
          "name": "price",
          "type": "uint256"
        },
        {
          "indexed": false,
          "internalType": "address",
          "name": "addr",
          "type": "address"
        },
        {
          "indexed": false,
          "internalType": "enum AbstractAsset.Stage",
          "name": "stage",
          "type": "uint8"
        }
      ],
      "name": "AssetCreationEvent",
      "type": "event"
    },
    {
      "anonymous": false,
      "inputs": [
        {
          "indexed": true,
          "internalType": "bytes32",
          "name": "id",
          "type": "bytes32"
        }
      ],
      "name": "ChainlinkCancelled",
      "type": "event"
    },
    {
      "anonymous": false,
      "inputs": [
        {
          "indexed": true,
          "internalType": "bytes32",
          "name": "id",
          "type": "bytes32"
        }
      ],
      "name": "ChainlinkFulfilled",
      "type": "event"
    },
    {
      "anonymous": false,
      "inputs": [
        {
          "indexed": true,
          "internalType": "bytes32",
          "name": "id",
          "type": "bytes32"
        }
      ],
      "name": "ChainlinkRequested",
      "type": "event"
    },
    {
      "anonymous": false,
      "inputs": [
        {
          "indexed": false,
          "internalType": "address",
          "name": "_contract",
          "type": "address"
        },
        {
          "indexed": false,
          "internalType": "address",
          "name": "_from",
          "type": "address"
        },
        {
          "indexed": false,
          "internalType": "address",
          "name": "_to",
          "type": "address"
        }
      ],
      "name": "OwnerTransformEvent",
      "type": "event"
    },
    {
      "inputs": [],
      "name": "assetType",
      "outputs": [
        {
          "internalType": "string",
          "name": "",
          "type": "string"
        }
      ],
      "stateMutability": "view",
      "type": "function"
    },
    {
      "inputs": [
        {
          "internalType": "address",
          "name": "_oracle",
          "type": "address"
        },
        {
          "internalType": "bytes32",
          "name": "_jobId",
          "type": "bytes32"
        },
        {
          "internalType": "uint256",
          "name": "_payment",
          "type": "uint256"
        },
        {
          "internalType": "bytes4",
          "name": "_callback",
          "type": "bytes4"
        },
        {
          "internalType": "string",
          "name": "_url",
          "type": "string"
        },
        {
          "internalType": "string",
          "name": "_path",
          "type": "string"
        }
      ],
      "name": "createRequestTo",
      "outputs": [
        {
          "internalType": "bytes32",
          "name": "requestId",
          "type": "bytes32"
        }
      ],
      "stateMutability": "nonpayable",
      "type": "function"
    },
    {
      "inputs": [],
      "name": "data",
      "outputs": [
        {
          "internalType": "uint256",
          "name": "",
          "type": "uint256"
        }
      ],
      "stateMutability": "view",
      "type": "function"
    },
    {
      "inputs": [],
      "name": "did",
      "outputs": [
        {
          "internalType": "string",
          "name": "",
          "type": "string"
        }
      ],
      "stateMutability": "view",
      "type": "function"
    },
    {
      "inputs": [],
      "name": "getChainlinkToken",
      "outputs": [
        {
          "internalType": "address",
          "name": "",
          "type": "address"
        }
      ],
      "stateMutability": "view",
      "type": "function"
    },
    {
      "inputs": [],
      "name": "imgUrl",
      "outputs": [
        {
          "internalType": "string",
          "name": "",
          "type": "string"
        }
      ],
      "stateMutability": "view",
      "type": "function"
    },
    {
      "inputs": [
        {
          "internalType": "address",
          "name": "_link",
          "type": "address"
        }
      ],
      "name": "initLink",
      "outputs": [],
      "stateMutability": "nonpayable",
      "type": "function"
    },
    {
      "inputs": [],
      "name": "name",
      "outputs": [
        {
          "internalType": "string",
          "name": "",
          "type": "string"
        }
      ],
      "stateMutability": "view",
      "type": "function"
    },
    {
      "inputs": [],
      "name": "owner",
      "outputs": [
        {
          "internalType": "address",
          "name": "",
          "type": "address"
        }
      ],
      "stateMutability": "view",
      "type": "function"
    },
    {
      "inputs": [],
      "name": "price",
      "outputs": [
        {
          "internalType": "uint256",
          "name": "",
          "type": "uint256"
        }
      ],
      "stateMutability": "view",
      "type": "function"
    },
    {
      "inputs": [],
      "name": "buy",
      "outputs": [],
      "stateMutability": "payable",
      "type": "function"
    },
    {
      "inputs": [
        {
          "internalType": "bytes32",
          "name": "_requestId",
          "type": "bytes32"
        },
        {
          "internalType": "uint256",
          "name": "_valid",
          "type": "uint256"
        }
      ],
      "name": "buyOracleReqCallback",
      "outputs": [],
      "stateMutability": "nonpayable",
      "type": "function"
    }
  ],
  "bytecode": "0x6080604052600160045573c57b33452b4f7bb189bb5afae9cc4aba1f7a4fd8600d60006101000a81548173ffffffffffffffffffffffffffffffffffffffff021916908373ffffffffffffffffffffffffffffffffffffffff1602179055507f6263373436363131656265653430613339383962626534396531326130326239600e5560006012553480156200009457600080fd5b506040516200207938038062002079833981810160405260a0811015620000ba57600080fd5b810190808051906020019092919080516040519392919084640100000000821115620000e557600080fd5b83820191506020820185811115620000fc57600080fd5b82518660018202830111640100000000821117156200011a57600080fd5b8083526020830192505050908051906020019080838360005b838110156200015057808201518184015260208101905062000133565b50505050905090810190601f1680156200017e5780820380516001836020036101000a031916815260200191505b506040526020018051906020019092919080516040519392919084640100000000821115620001ac57600080fd5b83820191506020820185811115620001c357600080fd5b8251866001820283011164010000000082111715620001e157600080fd5b8083526020830192505050908051906020019080838360005b8381101562000217578082015181840152602081019050620001fa565b50505050905090810190601f168015620002455780820380516001836020036101000a031916815260200191505b50604052602001805160405193929190846401000000008211156200026957600080fd5b838201915060208201858111156200028057600080fd5b82518660018202830111640100000000821117156200029e57600080fd5b8083526020830192505050908051906020019080838360005b83811015620002d4578082015181840152602081019050620002b7565b50505050905090810190601f168015620003025780820380516001836020036101000a031916815260200191505b506040525050506200031a85620005f560201b60201c565b60006007819055506000600660006101000a81548160ff021916908360058111156200034257fe5b021790555081600990805190602001906200035f92919062000744565b5083600890805190602001906200037892919062000744565b5082600a60006101000a81548173ffffffffffffffffffffffffffffffffffffffff021916908373ffffffffffffffffffffffffffffffffffffffff16021790555080600c9080519060200190620003d292919062000744565b507f4e4978ecb950d934bee893f11edf7222512f7cf61648045fc8b1eee5f8180f2b8183868660075430600660009054906101000a900460ff16604051808060200180602001806020018873ffffffffffffffffffffffffffffffffffffffff1673ffffffffffffffffffffffffffffffffffffffff1681526020018781526020018673ffffffffffffffffffffffffffffffffffffffff1673ffffffffffffffffffffffffffffffffffffffff1681526020018560058111156200049357fe5b60ff16815260200184810384528b818151815260200191508051906020019080838360005b83811015620004d5578082015181840152602081019050620004b8565b50505050905090810190601f168015620005035780820380516001836020036101000a031916815260200191505b5084810383528a818151815260200191508051906020019080838360005b838110156200053e57808201518184015260208101905062000521565b50505050905090810190601f1680156200056c5780820380516001836020036101000a031916815260200191505b50848103825289818151815260200191508051906020019080838360005b83811015620005a75780820151818401526020810190506200058a565b50505050905090810190601f168015620005d55780820380516001836020036101000a031916815260200191505b509a505050505050505050505060405180910390a15050505050620007f3565b600073ffffffffffffffffffffffffffffffffffffffff168173ffffffffffffffffffffffffffffffffffffffff16141562000641576200063b6200065660201b60201c565b62000653565b62000652816200070060201b60201c565b5b50565b620006fe73c89bd4e1632d3a43cb03aaad5262cbe4038bc57173ffffffffffffffffffffffffffffffffffffffff166338cc48316040518163ffffffff1660e01b815260040160206040518083038186803b158015620006b557600080fd5b505afa158015620006ca573d6000803e3d6000fd5b505050506040513d6020811015620006e157600080fd5b81019080805190602001909291905050506200070060201b60201c565b565b80600260006101000a81548173ffffffffffffffffffffffffffffffffffffffff021916908373ffffffffffffffffffffffffffffffffffffffff16021790555050565b828054600181600116156101000203166002900490600052602060002090601f016020900481019282601f106200078757805160ff1916838001178555620007b8565b82800160010185558215620007b8579182015b82811115620007b75782518255916020019190600101906200079a565b5b509050620007c79190620007cb565b5090565b620007f091905b80821115620007ec576000816000905550600101620007d2565b5090565b90565b61187680620008036000396000f3fe6080604052600436106100a75760003560e01c8063a035b1fe11610064578063a035b1fe14610475578063a6f2ae3a146104a0578063b74eff33146104aa578063d68387c7146104ef578063e6fcc84b1461057f578063f131e6ca1461060f576100a7565b806306fdde03146100ac578063165d35e11461013c5780633fe3347a146101935780636d8958ed1461022357806373d4a13a146103f35780638da5cb5b1461041e575b600080fd5b3480156100b857600080fd5b506100c1610660565b6040518080602001828103825283818151815260200191508051906020019080838360005b838110156101015780820151818401526020810190506100e6565b50505050905090810190601f16801561012e5780820380516001836020036101000a031916815260200191505b509250505060405180910390f35b34801561014857600080fd5b506101516106fe565b604051808273ffffffffffffffffffffffffffffffffffffffff1673ffffffffffffffffffffffffffffffffffffffff16815260200191505060405180910390f35b34801561019f57600080fd5b506101a861070d565b6040518080602001828103825283818151815260200191508051906020019080838360005b838110156101e85780820151818401526020810190506101cd565b50505050905090810190601f1680156102155780820380516001836020036101000a031916815260200191505b509250505060405180910390f35b34801561022f57600080fd5b506103dd600480360360c081101561024657600080fd5b81019080803573ffffffffffffffffffffffffffffffffffffffff169060200190929190803590602001909291908035906020019092919080357bffffffffffffffffffffffffffffffffffffffffffffffffffffffff19169060200190929190803590602001906401000000008111156102c057600080fd5b8201836020820111156102d257600080fd5b803590602001918460018302840111640100000000831117156102f457600080fd5b91908080601f016020809104026020016040519081016040528093929190818152602001838380828437600081840152601f19601f8201169050808301925050505050505091929192908035906020019064010000000081111561035757600080fd5b82018360208201111561036957600080fd5b8035906020019184600183028401116401000000008311171561038b57600080fd5b91908080601f016020809104026020016040519081016040528093929190818152602001838380828437600081840152601f19601f8201169050808301925050505050505091929192905050506107ab565b6040518082815260200191505060405180910390f35b3480156103ff57600080fd5b5061040861086e565b6040518082815260200191505060405180910390f35b34801561042a57600080fd5b50610433610874565b604051808273ffffffffffffffffffffffffffffffffffffffff1673ffffffffffffffffffffffffffffffffffffffff16815260200191505060405180910390f35b34801561048157600080fd5b5061048a61089a565b6040518082815260200191505060405180910390f35b6104a86108a0565b005b3480156104b657600080fd5b506104ed600480360360408110156104cd57600080fd5b810190808035906020019092919080359060200190929190505050610a0d565b005b3480156104fb57600080fd5b50610504610a43565b6040518080602001828103825283818151815260200191508051906020019080838360005b83811015610544578082015181840152602081019050610529565b50505050905090810190601f1680156105715780820380516001836020036101000a031916815260200191505b509250505060405180910390f35b34801561058b57600080fd5b50610594610ae1565b6040518080602001828103825283818151815260200191508051906020019080838360005b838110156105d45780820151818401526020810190506105b9565b50505050905090810190601f1680156106015780820380516001836020036101000a031916815260200191505b509250505060405180910390f35b34801561061b57600080fd5b5061065e6004803603602081101561063257600080fd5b81019080803573ffffffffffffffffffffffffffffffffffffffff169060200190929190505050610b7f565b005b600c8054600181600116156101000203166002900480601f0160208091040260200160405190810160405280929190818152602001828054600181600116156101000203166002900480156106f65780601f106106cb576101008083540402835291602001916106f6565b820191906000526020600020905b8154815290600101906020018083116106d957829003601f168201915b505050505081565b6000610708610bce565b905090565b600b8054600181600116156101000203166002900480601f0160208091040260200160405190810160405280929190818152602001828054600181600116156101000203166002900480156107a35780601f10610778576101008083540402835291602001916107a3565b820191906000526020600020905b81548152906001019060200180831161078657829003601f168201915b505050505081565b60006107b561176e565b6107c0873087610bf8565b905061080c6040518060400160405280600381526020017f67657400000000000000000000000000000000000000000000000000000000008152508583610c299092919063ffffffff16565b6108566040518060400160405280600481526020017f70617468000000000000000000000000000000000000000000000000000000008152508483610c299092919063ffffffff16565b610861888288610c5c565b9150509695505050505050565b60125481565b600a60009054906101000a900473ffffffffffffffffffffffffffffffffffffffff1681565b60075481565b3460078190555033601160006101000a81548173ffffffffffffffffffffffffffffffffffffffff021916908373ffffffffffffffffffffffffffffffffffffffff160217905550600073c57b33452b4f7bb189bb5afae9cc4aba1f7a4fd8905060007f643532373064316333313139343164306230386265616432316665613737343790506000670de0b6b3a764000090506060600860405160200180806117f660289139602801828054600181600116156101000203166002900480156109a05780601f1061097e5761010080835404028352918201916109a0565b820191906000526020600020905b81548152906001019060200180831161098c575b5050915050604051602081830303815290604052905060606040518060400160405280600481526020017f64617461000000000000000000000000000000000000000000000000000000008152509050610a0585858563b74eff3360e01b86866107ab565b505050505050565b80601281905550610a3f601160009054906101000a900473ffffffffffffffffffffffffffffffffffffffff16610f14565b5050565b60098054600181600116156101000203166002900480601f016020809104026020016040519081016040528092919081815260200182805460018160011615610100020316600290048015610ad95780601f10610aae57610100808354040283529160200191610ad9565b820191906000526020600020905b815481529060010190602001808311610abc57829003601f168201915b505050505081565b60088054600181600116156101000203166002900480601f016020809104026020016040519081016040528092919081815260200182805460018160011615610100020316600290048015610b775780601f10610b4c57610100808354040283529160200191610b77565b820191906000526020600020905b815481529060010190602001808311610b5a57829003601f168201915b505050505081565b600073ffffffffffffffffffffffffffffffffffffffff168173ffffffffffffffffffffffffffffffffffffffff161415610bc157610bbc611045565b610bcb565b610bca816110e4565b5b50565b6000600260009054906101000a900473ffffffffffffffffffffffffffffffffffffffff16905090565b610c0061176e565b610c0861176e565b610c1f85858584611128909392919063ffffffff16565b9150509392505050565b610c408284608001516111d890919063ffffffff16565b610c578184608001516111d890919063ffffffff16565b505050565b600030600454604051602001808373ffffffffffffffffffffffffffffffffffffffff1673ffffffffffffffffffffffffffffffffffffffff1660601b815260140182815260200192505050604051602081830303815290604052805190602001209050600454836060018181525050836005600083815260200190815260200160002060006101000a81548173ffffffffffffffffffffffffffffffffffffffff021916908373ffffffffffffffffffffffffffffffffffffffff160217905550807fb5e6e01e79f91267dc17b4e6314d5d4d03593d2ceee0fbb452b750bd70ea5af960405160405180910390a2600260009054906101000a900473ffffffffffffffffffffffffffffffffffffffff1673ffffffffffffffffffffffffffffffffffffffff16634000aea08584610d94876111fd565b6040518463ffffffff1660e01b8152600401808473ffffffffffffffffffffffffffffffffffffffff1673ffffffffffffffffffffffffffffffffffffffff16815260200183815260200180602001828103825283818151815260200191508051906020019080838360005b83811015610e1b578082015181840152602081019050610e00565b50505050905090810190601f168015610e485780820380516001836020036101000a031916815260200191505b50945050505050602060405180830381600087803b158015610e6957600080fd5b505af1158015610e7d573d6000803e3d6000fd5b505050506040513d6020811015610e9357600080fd5b8101908080519060200190929190505050610ef9576040517f08c379a000000000000000000000000000000000000000000000000000000000815260040180806020018281038252602381526020018061181e6023913960400191505060405180910390fd5b60016004600082825401925050819055508090509392505050565b7f626629a6220914361a0855b5f4c81c38c4ce7b39d504313e19a07c1b1ddc033c30600a60009054906101000a900473ffffffffffffffffffffffffffffffffffffffff1683604051808473ffffffffffffffffffffffffffffffffffffffff1673ffffffffffffffffffffffffffffffffffffffff1681526020018373ffffffffffffffffffffffffffffffffffffffff1673ffffffffffffffffffffffffffffffffffffffff1681526020018273ffffffffffffffffffffffffffffffffffffffff1673ffffffffffffffffffffffffffffffffffffffff168152602001935050505060405180910390a180600a60006101000a81548173ffffffffffffffffffffffffffffffffffffffff021916908373ffffffffffffffffffffffffffffffffffffffff16021790555050565b6110e273c89bd4e1632d3a43cb03aaad5262cbe4038bc57173ffffffffffffffffffffffffffffffffffffffff166338cc48316040518163ffffffff1660e01b815260040160206040518083038186803b1580156110a257600080fd5b505afa1580156110b6573d6000803e3d6000fd5b505050506040513d60208110156110cc57600080fd5b81019080805190602001909291905050506110e4565b565b80600260006101000a81548173ffffffffffffffffffffffffffffffffffffffff021916908373ffffffffffffffffffffffffffffffffffffffff16021790555050565b61113061176e565b61114085608001516101006113c9565b508385600001818152505082856020019073ffffffffffffffffffffffffffffffffffffffff16908173ffffffffffffffffffffffffffffffffffffffff16815250508185604001907bffffffffffffffffffffffffffffffffffffffffffffffffffffffff191690817bffffffffffffffffffffffffffffffffffffffffffffffffffffffff191681525050849050949350505050565b6111e5826003835161141d565b6111f8818361156290919063ffffffff16565b505050565b6060634042994660e01b60008084600001518560200151866040015187606001516001896080015160000151604051602401808973ffffffffffffffffffffffffffffffffffffffff1673ffffffffffffffffffffffffffffffffffffffff1681526020018881526020018781526020018673ffffffffffffffffffffffffffffffffffffffff1673ffffffffffffffffffffffffffffffffffffffff168152602001857bffffffffffffffffffffffffffffffffffffffffffffffffffffffff19167bffffffffffffffffffffffffffffffffffffffffffffffffffffffff1916815260200184815260200183815260200180602001828103825283818151815260200191508051906020019080838360005b8381101561132c578082015181840152602081019050611311565b50505050905090810190601f1680156113595780820380516001836020036101000a031916815260200191505b509950505050505050505050604051602081830303815290604052907bffffffffffffffffffffffffffffffffffffffffffffffffffffffff19166020820180517bffffffffffffffffffffffffffffffffffffffffffffffffffffffff83818316178352505050509050919050565b6113d16117db565b6000602083816113dd57fe5b06146113f657602082816113ed57fe5b06602003820191505b81836020018181525050604051808452600081528281016020016040525082905092915050565b6017811161144a576114448160058460ff16901b60ff16178461158490919063ffffffff16565b5061155d565b60ff811161148c5761146f601860058460ff16901b178461158490919063ffffffff16565b50611486816001856115a49092919063ffffffff16565b5061155c565b61ffff81116114cf576114b2601960058460ff16901b178461158490919063ffffffff16565b506114c9816002856115a49092919063ffffffff16565b5061155b565b63ffffffff8111611514576114f7601a60058460ff16901b178461158490919063ffffffff16565b5061150e816004856115a49092919063ffffffff16565b5061155a565b67ffffffffffffffff811161155957611540601b60058460ff16901b178461158490919063ffffffff16565b50611557816008856115a49092919063ffffffff16565b505b5b5b5b5b505050565b61156a6117db565b61157c838460000151518485516115c6565b905092915050565b61158c6117db565b61159c838460000151518461167f565b905092915050565b6115ac6117db565b6115bd8485600001515185856116cd565b90509392505050565b6115ce6117db565b82518211156115dc57600080fd5b8460200151828501111561160757611606856002611600886020015188870161172e565b0261174a565b5b6000808651805187602083010193508088870111156116265787860182525b60208701925050505b60208410611652578051825260208201915060208101905060208403935061162f565b60006001856020036101000a03905080198251168184511681811785525050879350505050949350505050565b6116876117db565b836020015183106116a4576116a384600286602001510261174a565b5b83518051602085830101848153818614156116c0576001820183525b5050508390509392505050565b6116d56117db565b846020015184830111156116f3576116f28560028685010261174a565b5b60006001836101000a03905085518386820101858319825116178152815185880111156117205784870182525b505085915050949350505050565b60008183111561174057829050611744565b8190505b92915050565b60608260000151905061175d83836113c9565b506117688382611562565b50505050565b6040518060a0016040528060008019168152602001600073ffffffffffffffffffffffffffffffffffffffff16815260200160007bffffffffffffffffffffffffffffffffffffffffffffffffffffffff19168152602001600081526020016117d56117db565b81525090565b60405180604001604052806060815260200160008152509056fe68747470733a2f2f6170692e7768682e62757a7a2f6170692f61737365742f76616c69643f69643d756e61626c6520746f207472616e73666572416e6443616c6c20746f206f7261636c65a26469706673582212202f86d8f7d56fb128842ef2b762843b68552e77e19666a5f52aaa602548e6d56c64736f6c63430006060033",
  "immutableReferences": {},
  "source": "// SPDX-License-Identifier: MIT\npragma solidity >=0.4.22 <0.9.0;\nimport \"./AbstractAsset.sol\";\n\ncontract AssetDemo is AbstractAsset {\n    uint256 public data = 0;\n\n    constructor(\n        address _link,\n        string memory _did,\n        address _owner,\n        string memory _imgUrl,\n        string memory _name\n    ) public {\n        initLink(_link);\n        price = 0;\n        stage = Stage.Frozen;\n        imgUrl = _imgUrl;\n        did = _did;\n        owner = _owner;\n        name = _name;\n        emit AssetCreationEvent(\n            _name,\n            _imgUrl,\n            _did,\n            _owner,\n            price,\n            address(this),\n            stage\n        );\n    }\n\n    function buy() public payable {\n        price = msg.value;\n        buyer = msg.sender;\n        //  https://docs.chain.link/docs/decentralized-oracles-ethereum-mainnet/\n        address addr = address(0xc57B33452b4F7BB189bB5AfaE9cc4aBa1f7a4FD8);\n        bytes32 jobId = \"d5270d1c311941d0b08bead21fea7747\";\n        uint256 payment = 1000000000000000000;\n        // \n        string memory url = string(\n            abi.encodePacked(\"https://api.whh.buzz/api/asset/valid?id=\", did)\n        );\n        string memory path = \"data\";\n        createRequestTo(\n            addr,\n            jobId,\n            payment,\n            this.buyOracleReqCallback.selector,\n            url,\n            path\n        );\n    }\n\n    function buyOracleReqCallback(bytes32 _requestId, uint256 _valid) public {\n        // emit LogEvent(msg.sender, _valid);\n        // emit CallbackInvokeEvent(\"buyOracleReqCallback\", _valid);\n        // if (!_valid) {\n        //     emit AssetCheckFailed(address(this), buyer);\n        //     return;\n        // }\n        data = _valid;\n        transformOwner(buyer);\n    }\n\n    function transformOwner(address _owner) internal {\n        emit OwnerTransformEvent(address(this), owner, _owner);\n        owner = _owner;\n    }\n}\n",
  "sourcePath": "/Users/ywb/Documents/github/chainlink-docker/blockchain/contracts/AssetDemo.sol",
  "compiler": {
    "name": "solc",
    "version": "0.6.6+commit.6c089d02.Emscripten.clang"
  },
  "schemaVersion": "3.4.3",
  "updatedAt": "2022-04-02T05:26:07.703Z",
  "devdoc": {
    "methods": {
      "createRequestTo(address,bytes32,uint256,bytes4,string,string)": {
        "details": "This function ignores the stored Oracle contract address and will instead send the request to the address specified",
        "params": {
          "_jobId": "The bytes32 JobID to be executed",
          "_oracle": "The Oracle contract address to send the request to",
          "_path": "The dot-delimited path to parse of the response",
          "_payment": "link token",
          "_url": "The URL to fetch data from"
        }
      },
      "getChainlinkToken()": {
        "details": "This is the public implementation for chainlinkTokenAddress, which is an internal method of the ChainlinkClient contract"
      }
    }
  },
  "userdoc": {
    "methods": {
      "createRequestTo(address,bytes32,uint256,bytes4,string,string)": {
        "notice": "Creates a request to the specified Oracle contract address"
      },
      "getChainlinkToken()": {
        "notice": "Returns the address of the LINK token"
      }
    }
  }
}