{
  "contractName": "Demo",
  "abi": [
    {
      "inputs": [],
      "stateMutability": "nonpayable",
      "type": "constructor"
    },
    {
      "anonymous": false,
      "inputs": [
        {
          "indexed": false,
          "internalType": "uint8",
          "name": "index",
          "type": "uint8"
        }
      ],
      "name": "TestEvent",
      "type": "event"
    },
    {
      "inputs": [],
      "name": "index",
      "outputs": [
        {
          "internalType": "uint8",
          "name": "",
          "type": "uint8"
        }
      ],
      "stateMutability": "view",
      "type": "function",
      "constant": true
    },
    {
      "inputs": [],
      "name": "invoke",
      "outputs": [],
      "stateMutability": "nonpayable",
      "type": "function"
    }
  ],
  "bytecode": "0x608060405234801561001057600080fd5b5060008060006101000a81548160ff021916908360ff1602179055506101238061003b6000396000f3fe6080604052348015600f57600080fd5b506004361060325760003560e01c80632986c0e5146037578063cab7f521146059575b600080fd5b603d6061565b604051808260ff1660ff16815260200191505060405180910390f35b605f6073565b005b6000809054906101000a900460ff1681565b7f87b9e8383f214c9064b11180dad2b3102d08ce0c79a2d0fe4e5a8339edd33aed6000809054906101000a900460ff16604051808260ff1660ff16815260200191505060405180910390a160016000808282829054906101000a900460ff160192506101000a81548160ff021916908360ff16021790555056fea2646970667358221220bf1737ec4599e77579103bee64484cde3b471b7bfb53f3ea10e820584185b6eb64736f6c63430006000033",
  "source": "// SPDX-License-Identifier: MIT\npragma solidity >=0.4.22 <0.9.0;\n\ncontract Demo {\n    uint8 public index;\n    event TestEvent(uint8 index);\n\n    constructor() public {\n        index = 0;\n    }\n\n    function invoke() public {\n        emit TestEvent(index);\n        index += 1;\n    }\n}\n",
  "sourcePath": "/Users/ywb/Documents/github/chainlink-docker/blockchain/contracts/Demo.sol",
  "compiler": {
    "name": "solc",
    "version": "0.6.0+commit.26b70077.Emscripten.clang"
  },
  "schemaVersion": "3.4.3",
  "updatedAt": "2022-04-01T02:31:09.253Z",
  "networkType": "ethereum",
  "devdoc": {
    "methods": {}
  },
  "userdoc": {
    "methods": {}
  }
}