{
  "contractName": "Registry",
  "abi": [
    {
      "inputs": [
        {
          "internalType": "address",
          "name": "_link",
          "type": "address"
        }
      ],
      "stateMutability": "nonpayable",
      "type": "constructor"
    },
    {
      "anonymous": false,
      "inputs": [
        {
          "indexed": true,
          "internalType": "bytes32",
          "name": "id",
          "type": "bytes32"
        }
      ],
      "name": "ChainlinkCancelled",
      "type": "event"
    },
    {
      "anonymous": false,
      "inputs": [
        {
          "indexed": true,
          "internalType": "bytes32",
          "name": "id",
          "type": "bytes32"
        }
      ],
      "name": "ChainlinkFulfilled",
      "type": "event"
    },
    {
      "anonymous": false,
      "inputs": [
        {
          "indexed": true,
          "internalType": "bytes32",
          "name": "id",
          "type": "bytes32"
        }
      ],
      "name": "ChainlinkRequested",
      "type": "event"
    },
    {
      "stateMutability": "payable",
      "type": "fallback"
    },
    {
      "inputs": [
        {
          "internalType": "string",
          "name": "",
          "type": "string"
        }
      ],
      "name": "id2contract",
      "outputs": [
        {
          "internalType": "address",
          "name": "",
          "type": "address"
        }
      ],
      "stateMutability": "view",
      "type": "function"
    },
    {
      "inputs": [
        {
          "internalType": "string",
          "name": "",
          "type": "string"
        }
      ],
      "name": "id2isuuer",
      "outputs": [
        {
          "internalType": "string",
          "name": "",
          "type": "string"
        }
      ],
      "stateMutability": "view",
      "type": "function"
    },
    {
      "stateMutability": "payable",
      "type": "receive"
    },
    {
      "inputs": [
        {
          "internalType": "string",
          "name": "id",
          "type": "string"
        }
      ],
      "name": "resolveDocuemnt",
      "outputs": [
        {
          "internalType": "string",
          "name": "",
          "type": "string"
        }
      ],
      "stateMutability": "view",
      "type": "function"
    },
    {
      "inputs": [
        {
          "internalType": "string",
          "name": "_id",
          "type": "string"
        },
        {
          "internalType": "string",
          "name": "_hash",
          "type": "string"
        }
      ],
      "name": "register",
      "outputs": [],
      "stateMutability": "nonpayable",
      "type": "function"
    },
    {
      "inputs": [
        {
          "internalType": "string",
          "name": "_did",
          "type": "string"
        },
        {
          "internalType": "address",
          "name": "_owner",
          "type": "address"
        },
        {
          "internalType": "string",
          "name": "_imgUrl",
          "type": "string"
        },
        {
          "internalType": "string",
          "name": "_name",
          "type": "string"
        },
        {
          "internalType": "string",
          "name": "_hash",
          "type": "string"
        }
      ],
      "name": "create",
      "outputs": [],
      "stateMutability": "nonpayable",
      "type": "function"
    }
  ],
  "bytecode": "0x6080604052600160045534801561001557600080fd5b506040516200344e3803806200344e8339818101604052602081101561003a57600080fd5b8101908080519060200190929190505050600073ffffffffffffffffffffffffffffffffffffffff168173ffffffffffffffffffffffffffffffffffffffff1614156100935761008e6100a960201b60201c565b6100a3565b6100a28161014e60201b60201c565b5b50610192565b61014c73c89bd4e1632d3a43cb03aaad5262cbe4038bc57173ffffffffffffffffffffffffffffffffffffffff166338cc48316040518163ffffffff1660e01b815260040160206040518083038186803b15801561010657600080fd5b505afa15801561011a573d6000803e3d6000fd5b505050506040513d602081101561013057600080fd5b810190808051906020019092919050505061014e60201b60201c565b565b80600260006101000a81548173ffffffffffffffffffffffffffffffffffffffff021916908373ffffffffffffffffffffffffffffffffffffffff16021790555050565b6132ac80620001a26000396000f3fe608060405260043610620000555760003560e01c80633ffbd47f146200005f5780634a1bb19214620001c857806364b74b0f1462000313578063cc23ab3b1462000422578063fdfc943914620006df576200005d565b366200005d57005b005b3480156200006c57600080fd5b50620001c6600480360360408110156200008557600080fd5b8101908080359060200190640100000000811115620000a357600080fd5b820183602082011115620000b657600080fd5b80359060200191846001830284011164010000000083111715620000d957600080fd5b91908080601f016020809104026020016040519081016040528093929190818152602001838380828437600081840152601f19601f820116905080830192505050505050509192919290803590602001906401000000008111156200013d57600080fd5b8201836020820111156200015057600080fd5b803590602001918460018302840111640100000000831117156200017357600080fd5b91908080601f016020809104026020016040519081016040528093929190818152602001838380828437600081840152601f19601f8201169050808301925050505050505091929192905050506200082a565b005b348015620001d557600080fd5b506200029560048036036020811015620001ee57600080fd5b81019080803590602001906401000000008111156200020c57600080fd5b8201836020820111156200021f57600080fd5b803590602001918460018302840111640100000000831117156200024257600080fd5b91908080601f016020809104026020016040519081016040528093929190818152602001838380828437600081840152601f19601f820116905080830192505050505050509192919290505050620008b0565b6040518080602001828103825283818151815260200191508051906020019080838360005b83811015620002d7578082015181840152602081019050620002ba565b50505050905090810190601f168015620003055780820380516001836020036101000a031916815260200191505b509250505060405180910390f35b3480156200032057600080fd5b50620003e0600480360360208110156200033957600080fd5b81019080803590602001906401000000008111156200035757600080fd5b8201836020820111156200036a57600080fd5b803590602001918460018302840111640100000000831117156200038d57600080fd5b91908080601f016020809104026020016040519081016040528093929190818152602001838380828437600081840152601f19601f820116905080830192505050505050509192919290505050620009c1565b604051808273ffffffffffffffffffffffffffffffffffffffff1673ffffffffffffffffffffffffffffffffffffffff16815260200191505060405180910390f35b3480156200042f57600080fd5b50620006dd600480360360a08110156200044857600080fd5b81019080803590602001906401000000008111156200046657600080fd5b8201836020820111156200047957600080fd5b803590602001918460018302840111640100000000831117156200049c57600080fd5b91908080601f016020809104026020016040519081016040528093929190818152602001838380828437600081840152601f19601f820116905080830192505050505050509192919290803573ffffffffffffffffffffffffffffffffffffffff169060200190929190803590602001906401000000008111156200052057600080fd5b8201836020820111156200053357600080fd5b803590602001918460018302840111640100000000831117156200055657600080fd5b91908080601f016020809104026020016040519081016040528093929190818152602001838380828437600081840152601f19601f82011690508083019250505050505050919291929080359060200190640100000000811115620005ba57600080fd5b820183602082011115620005cd57600080fd5b80359060200191846001830284011164010000000083111715620005f057600080fd5b91908080601f016020809104026020016040519081016040528093929190818152602001838380828437600081840152601f19601f820116905080830192505050505050509192919290803590602001906401000000008111156200065457600080fd5b8201836020820111156200066757600080fd5b803590602001918460018302840111640100000000831117156200068a57600080fd5b91908080601f016020809104026020016040519081016040528093929190818152602001838380828437600081840152601f19601f82011690508083019250505050505050919291929050505062000a0a565b005b348015620006ec57600080fd5b50620007ac600480360360208110156200070557600080fd5b81019080803590602001906401000000008111156200072357600080fd5b8201836020820111156200073657600080fd5b803590602001918460018302840111640100000000831117156200075957600080fd5b91908080601f016020809104026020016040519081016040528093929190818152602001838380828437600081840152601f19601f82011690508083019250505050505050919291929050505062000da2565b6040518080602001828103825283818151815260200191508051906020019080838360005b83811015620007ee578082015181840152602081019050620007d1565b50505050905090810190601f1680156200081c5780820380516001836020036101000a031916815260200191505b509250505060405180910390f35b806006836040518082805190602001908083835b602083106200086357805182526020820191506020810190506020830392506200083e565b6001836020036101000a03801982511681845116808217855250505050505090500191505090815260200160405180910390209080519060200190620008ab92919062000e96565b505050565b60606006826040518082805190602001908083835b60208310620008ea5780518252602082019150602081019050602083039250620008c5565b6001836020036101000a03801982511681845116808217855250505050505090500191505090815260200160405180910390208054600181600116156101000203166002900480601f016020809104026020016040519081016040528092919081815260200182805460018160011615610100020316600290048015620009b55780601f106200098957610100808354040283529160200191620009b5565b820191906000526020600020905b8154815290600101906020018083116200099757829003601f168201915b50505050509050919050565b6007818051602081018201805184825260208301602085012081835280955050505050506000915054906101000a900473ffffffffffffffffffffffffffffffffffffffff1681565b600062000a1662000e6c565b868686868660405162000a299062000f1d565b808773ffffffffffffffffffffffffffffffffffffffff1673ffffffffffffffffffffffffffffffffffffffff168152602001806020018673ffffffffffffffffffffffffffffffffffffffff1673ffffffffffffffffffffffffffffffffffffffff16815260200180602001806020018060200185810385528a818151815260200191508051906020019080838360005b8381101562000ad857808201518184015260208101905062000abb565b50505050905090810190601f16801562000b065780820380516001836020036101000a031916815260200191505b50858103845288818151815260200191508051906020019080838360005b8381101562000b4157808201518184015260208101905062000b24565b50505050905090810190601f16801562000b6f5780820380516001836020036101000a031916815260200191505b50858103835287818151815260200191508051906020019080838360005b8381101562000baa57808201518184015260208101905062000b8d565b50505050905090810190601f16801562000bd85780820380516001836020036101000a031916815260200191505b50858103825286818151815260200191508051906020019080838360005b8381101562000c1357808201518184015260208101905062000bf6565b50505050905090810190601f16801562000c415780820380516001836020036101000a031916815260200191505b509a5050505050505050505050604051809103906000f08015801562000c6b573d6000803e3d6000fd5b509050816006876040518082805190602001908083835b6020831062000ca7578051825260208201915060208101905060208303925062000c82565b6001836020036101000a0380198251168184511680821785525050505050509050019150509081526020016040518091039020908051906020019062000cef92919062000e96565b50806007876040518082805190602001908083835b6020831062000d29578051825260208201915060208101905060208303925062000d04565b6001836020036101000a038019825116818451168082178552505050505050905001915050908152602001604051809103902060006101000a81548173ffffffffffffffffffffffffffffffffffffffff021916908373ffffffffffffffffffffffffffffffffffffffff160217905550505050505050565b6006818051602081018201805184825260208301602085012081835280955050505050506000915090508054600181600116156101000203166002900480601f01602080910402602001604051908101604052809291908181526020018280546001816001161561010002031660029004801562000e645780601f1062000e385761010080835404028352916020019162000e64565b820191906000526020600020905b81548152906001019060200180831162000e4657829003601f168201915b505050505081565b6000600260009054906101000a900473ffffffffffffffffffffffffffffffffffffffff16905090565b828054600181600116156101000203166002900490600052602060002090601f016020900481019282601f1062000ed957805160ff191683800117855562000f0a565b8280016001018555821562000f0a579182015b8281111562000f0957825182559160200191906001019062000eec565b5b50905062000f19919062000f2b565b5090565b6123238062000f5483390190565b62000f5091905b8082111562000f4c57600081600090555060010162000f32565b5090565b9056fe6080604052600160045573c57b33452b4f7bb189bb5afae9cc4aba1f7a4fd8600d60006101000a81548173ffffffffffffffffffffffffffffffffffffffff021916908373ffffffffffffffffffffffffffffffffffffffff1602179055507f6263373436363131656265653430613339383962626534396531326130326239600e5560006013553480156200009457600080fd5b506040516200232338038062002323833981810160405260c0811015620000ba57600080fd5b810190808051906020019092919080516040519392919084640100000000821115620000e557600080fd5b83820191506020820185811115620000fc57600080fd5b82518660018202830111640100000000821117156200011a57600080fd5b8083526020830192505050908051906020019080838360005b838110156200015057808201518184015260208101905062000133565b50505050905090810190601f1680156200017e5780820380516001836020036101000a031916815260200191505b506040526020018051906020019092919080516040519392919084640100000000821115620001ac57600080fd5b83820191506020820185811115620001c357600080fd5b8251866001820283011164010000000082111715620001e157600080fd5b8083526020830192505050908051906020019080838360005b8381101562000217578082015181840152602081019050620001fa565b50505050905090810190601f168015620002455780820380516001836020036101000a031916815260200191505b50604052602001805160405193929190846401000000008211156200026957600080fd5b838201915060208201858111156200028057600080fd5b82518660018202830111640100000000821117156200029e57600080fd5b8083526020830192505050908051906020019080838360005b83811015620002d4578082015181840152602081019050620002b7565b50505050905090810190601f168015620003025780820380516001836020036101000a031916815260200191505b50604052602001805160405193929190846401000000008211156200032657600080fd5b838201915060208201858111156200033d57600080fd5b82518660018202830111640100000000821117156200035b57600080fd5b8083526020830192505050908051906020019080838360005b838110156200039157808201518184015260208101905062000374565b50505050905090810190601f168015620003bf5780820380516001836020036101000a031916815260200191505b50604052505050620003d7866200075b60201b60201c565b60006007819055506000600660006101000a81548160ff02191690836005811115620003ff57fe5b021790555082600990805190602001906200041c929190620008aa565b50846008908051906020019062000435929190620008aa565b5083600a60006101000a81548173ffffffffffffffffffffffffffffffffffffffff021916908373ffffffffffffffffffffffffffffffffffffffff16021790555081600c90805190602001906200048f929190620008aa565b508060119080519060200190620004a8929190620008aa565b507f1040027de153a397259bacfc73d07396579696ff3fa3d51aebc2eca11bf04ec082848787600754306011600660009054906101000a900460ff16604051808060200180602001806020018973ffffffffffffffffffffffffffffffffffffffff1673ffffffffffffffffffffffffffffffffffffffff1681526020018881526020018773ffffffffffffffffffffffffffffffffffffffff1673ffffffffffffffffffffffffffffffffffffffff168152602001806020018660058111156200056f57fe5b60ff16815260200185810385528d818151815260200191508051906020019080838360005b83811015620005b157808201518184015260208101905062000594565b50505050905090810190601f168015620005df5780820380516001836020036101000a031916815260200191505b5085810384528c818151815260200191508051906020019080838360005b838110156200061a578082015181840152602081019050620005fd565b50505050905090810190601f168015620006485780820380516001836020036101000a031916815260200191505b5085810383528b818151815260200191508051906020019080838360005b838110156200068357808201518184015260208101905062000666565b50505050905090810190601f168015620006b15780820380516001836020036101000a031916815260200191505b50858103825287818154600181600116156101000203166002900481526020019150805460018160011615610100020316600290048015620007375780601f106200070b5761010080835404028352916020019162000737565b820191906000526020600020905b8154815290600101906020018083116200071957829003601f168201915b50509c5050505050505050505050505060405180910390a150505050505062000959565b600073ffffffffffffffffffffffffffffffffffffffff168173ffffffffffffffffffffffffffffffffffffffff161415620007a757620007a1620007bc60201b60201c565b620007b9565b620007b8816200086660201b60201c565b5b50565b6200086473c89bd4e1632d3a43cb03aaad5262cbe4038bc57173ffffffffffffffffffffffffffffffffffffffff166338cc48316040518163ffffffff1660e01b815260040160206040518083038186803b1580156200081b57600080fd5b505afa15801562000830573d6000803e3d6000fd5b505050506040513d60208110156200084757600080fd5b81019080805190602001909291905050506200086660201b60201c565b565b80600260006101000a81548173ffffffffffffffffffffffffffffffffffffffff021916908373ffffffffffffffffffffffffffffffffffffffff16021790555050565b828054600181600116156101000203166002900490600052602060002090601f016020900481019282601f10620008ed57805160ff19168380011785556200091e565b828001600101855582156200091e579182015b828111156200091d57825182559160200191906001019062000900565b5b5090506200092d919062000931565b5090565b6200095691905b808211156200095257600081600090555060010162000938565b5090565b90565b6119ba80620009696000396000f3fe6080604052600436106100a75760003560e01c8063a035b1fe11610064578063a035b1fe14610475578063a6f2ae3a146104a0578063b74eff33146104aa578063d68387c7146104ef578063e6fcc84b1461057f578063f131e6ca1461060f576100a7565b806306fdde03146100ac578063165d35e11461013c5780633fe3347a146101935780636d8958ed1461022357806373d4a13a146103f35780638da5cb5b1461041e575b600080fd5b3480156100b857600080fd5b506100c1610660565b6040518080602001828103825283818151815260200191508051906020019080838360005b838110156101015780820151818401526020810190506100e6565b50505050905090810190601f16801561012e5780820380516001836020036101000a031916815260200191505b509250505060405180910390f35b34801561014857600080fd5b506101516106fe565b604051808273ffffffffffffffffffffffffffffffffffffffff1673ffffffffffffffffffffffffffffffffffffffff16815260200191505060405180910390f35b34801561019f57600080fd5b506101a861070d565b6040518080602001828103825283818151815260200191508051906020019080838360005b838110156101e85780820151818401526020810190506101cd565b50505050905090810190601f1680156102155780820380516001836020036101000a031916815260200191505b509250505060405180910390f35b34801561022f57600080fd5b506103dd600480360360c081101561024657600080fd5b81019080803573ffffffffffffffffffffffffffffffffffffffff169060200190929190803590602001909291908035906020019092919080357bffffffffffffffffffffffffffffffffffffffffffffffffffffffff19169060200190929190803590602001906401000000008111156102c057600080fd5b8201836020820111156102d257600080fd5b803590602001918460018302840111640100000000831117156102f457600080fd5b91908080601f016020809104026020016040519081016040528093929190818152602001838380828437600081840152601f19601f8201169050808301925050505050505091929192908035906020019064010000000081111561035757600080fd5b82018360208201111561036957600080fd5b8035906020019184600183028401116401000000008311171561038b57600080fd5b91908080601f016020809104026020016040519081016040528093929190818152602001838380828437600081840152601f19601f8201169050808301925050505050505091929192905050506107ab565b6040518082815260200191505060405180910390f35b3480156103ff57600080fd5b5061040861086e565b6040518082815260200191505060405180910390f35b34801561042a57600080fd5b50610433610874565b604051808273ffffffffffffffffffffffffffffffffffffffff1673ffffffffffffffffffffffffffffffffffffffff16815260200191505060405180910390f35b34801561048157600080fd5b5061048a61089a565b6040518082815260200191505060405180910390f35b6104a86108a0565b005b3480156104b657600080fd5b506104ed600480360360408110156104cd57600080fd5b810190808035906020019092919080359060200190929190505050610b51565b005b3480156104fb57600080fd5b50610504610b87565b6040518080602001828103825283818151815260200191508051906020019080838360005b83811015610544578082015181840152602081019050610529565b50505050905090810190601f1680156105715780820380516001836020036101000a031916815260200191505b509250505060405180910390f35b34801561058b57600080fd5b50610594610c25565b6040518080602001828103825283818151815260200191508051906020019080838360005b838110156105d45780820151818401526020810190506105b9565b50505050905090810190601f1680156106015780820380516001836020036101000a031916815260200191505b509250505060405180910390f35b34801561061b57600080fd5b5061065e6004803603602081101561063257600080fd5b81019080803573ffffffffffffffffffffffffffffffffffffffff169060200190929190505050610cc3565b005b600c8054600181600116156101000203166002900480601f0160208091040260200160405190810160405280929190818152602001828054600181600116156101000203166002900480156106f65780601f106106cb576101008083540402835291602001916106f6565b820191906000526020600020905b8154815290600101906020018083116106d957829003601f168201915b505050505081565b6000610708610d12565b905090565b600b8054600181600116156101000203166002900480601f0160208091040260200160405190810160405280929190818152602001828054600181600116156101000203166002900480156107a35780601f10610778576101008083540402835291602001916107a3565b820191906000526020600020905b81548152906001019060200180831161078657829003601f168201915b505050505081565b60006107b56118b2565b6107c0873087610d3c565b905061080c6040518060400160405280600381526020017f67657400000000000000000000000000000000000000000000000000000000008152508583610d6d9092919063ffffffff16565b6108566040518060400160405280600481526020017f70617468000000000000000000000000000000000000000000000000000000008152508483610d6d9092919063ffffffff16565b610861888288610da0565b9150509695505050505050565b60135481565b600a60009054906101000a900473ffffffffffffffffffffffffffffffffffffffff1681565b60075481565b3460078190555033601260006101000a81548173ffffffffffffffffffffffffffffffffffffffff021916908373ffffffffffffffffffffffffffffffffffffffff160217905550600073c57b33452b4f7bb189bb5afae9cc4aba1f7a4fd8905060007f643532373064316333313139343164306230386265616432316665613737343790506000670de0b6b3a7640000905060606008604051602001808061193a60289139602801828054600181600116156101000203166002900480156109a05780601f1061097e5761010080835404028352918201916109a0565b820191906000526020600020905b81548152906001019060200180831161098c575b5050915050604051602081830303815290604052905060606040518060400160405280600481526020017f64617461000000000000000000000000000000000000000000000000000000008152509050610a0585858563b74eff3360e01b86866107ab565b507fee3b6293a053323bdd550520cc0ab0fa001772327e5102230a938bde81efb48f601260009054906101000a900473ffffffffffffffffffffffffffffffffffffffff16306008604051808473ffffffffffffffffffffffffffffffffffffffff1673ffffffffffffffffffffffffffffffffffffffff1681526020018373ffffffffffffffffffffffffffffffffffffffff1673ffffffffffffffffffffffffffffffffffffffff16815260200180602001828103825283818154600181600116156101000203166002900481526020019150805460018160011615610100020316600290048015610b3a5780601f10610b0f57610100808354040283529160200191610b3a565b820191906000526020600020905b815481529060010190602001808311610b1d57829003601f168201915b505094505050505060405180910390a15050505050565b80601381905550610b83601260009054906101000a900473ffffffffffffffffffffffffffffffffffffffff16611058565b5050565b60098054600181600116156101000203166002900480601f016020809104026020016040519081016040528092919081815260200182805460018160011615610100020316600290048015610c1d5780601f10610bf257610100808354040283529160200191610c1d565b820191906000526020600020905b815481529060010190602001808311610c0057829003601f168201915b505050505081565b60088054600181600116156101000203166002900480601f016020809104026020016040519081016040528092919081815260200182805460018160011615610100020316600290048015610cbb5780601f10610c9057610100808354040283529160200191610cbb565b820191906000526020600020905b815481529060010190602001808311610c9e57829003601f168201915b505050505081565b600073ffffffffffffffffffffffffffffffffffffffff168173ffffffffffffffffffffffffffffffffffffffff161415610d0557610d00611189565b610d0f565b610d0e81611228565b5b50565b6000600260009054906101000a900473ffffffffffffffffffffffffffffffffffffffff16905090565b610d446118b2565b610d4c6118b2565b610d638585858461126c909392919063ffffffff16565b9150509392505050565b610d8482846080015161131c90919063ffffffff16565b610d9b81846080015161131c90919063ffffffff16565b505050565b600030600454604051602001808373ffffffffffffffffffffffffffffffffffffffff1673ffffffffffffffffffffffffffffffffffffffff1660601b815260140182815260200192505050604051602081830303815290604052805190602001209050600454836060018181525050836005600083815260200190815260200160002060006101000a81548173ffffffffffffffffffffffffffffffffffffffff021916908373ffffffffffffffffffffffffffffffffffffffff160217905550807fb5e6e01e79f91267dc17b4e6314d5d4d03593d2ceee0fbb452b750bd70ea5af960405160405180910390a2600260009054906101000a900473ffffffffffffffffffffffffffffffffffffffff1673ffffffffffffffffffffffffffffffffffffffff16634000aea08584610ed887611341565b6040518463ffffffff1660e01b8152600401808473ffffffffffffffffffffffffffffffffffffffff1673ffffffffffffffffffffffffffffffffffffffff16815260200183815260200180602001828103825283818151815260200191508051906020019080838360005b83811015610f5f578082015181840152602081019050610f44565b50505050905090810190601f168015610f8c5780820380516001836020036101000a031916815260200191505b50945050505050602060405180830381600087803b158015610fad57600080fd5b505af1158015610fc1573d6000803e3d6000fd5b505050506040513d6020811015610fd757600080fd5b810190808051906020019092919050505061103d576040517f08c379a00000000000000000000000000000000000000000000000000000000081526004018080602001828103825260238152602001806119626023913960400191505060405180910390fd5b60016004600082825401925050819055508090509392505050565b7f626629a6220914361a0855b5f4c81c38c4ce7b39d504313e19a07c1b1ddc033c30600a60009054906101000a900473ffffffffffffffffffffffffffffffffffffffff1683604051808473ffffffffffffffffffffffffffffffffffffffff1673ffffffffffffffffffffffffffffffffffffffff1681526020018373ffffffffffffffffffffffffffffffffffffffff1673ffffffffffffffffffffffffffffffffffffffff1681526020018273ffffffffffffffffffffffffffffffffffffffff1673ffffffffffffffffffffffffffffffffffffffff168152602001935050505060405180910390a180600a60006101000a81548173ffffffffffffffffffffffffffffffffffffffff021916908373ffffffffffffffffffffffffffffffffffffffff16021790555050565b61122673c89bd4e1632d3a43cb03aaad5262cbe4038bc57173ffffffffffffffffffffffffffffffffffffffff166338cc48316040518163ffffffff1660e01b815260040160206040518083038186803b1580156111e657600080fd5b505afa1580156111fa573d6000803e3d6000fd5b505050506040513d602081101561121057600080fd5b8101908080519060200190929190505050611228565b565b80600260006101000a81548173ffffffffffffffffffffffffffffffffffffffff021916908373ffffffffffffffffffffffffffffffffffffffff16021790555050565b6112746118b2565b611284856080015161010061150d565b508385600001818152505082856020019073ffffffffffffffffffffffffffffffffffffffff16908173ffffffffffffffffffffffffffffffffffffffff16815250508185604001907bffffffffffffffffffffffffffffffffffffffffffffffffffffffff191690817bffffffffffffffffffffffffffffffffffffffffffffffffffffffff191681525050849050949350505050565b6113298260038351611561565b61133c81836116a690919063ffffffff16565b505050565b6060634042994660e01b60008084600001518560200151866040015187606001516001896080015160000151604051602401808973ffffffffffffffffffffffffffffffffffffffff1673ffffffffffffffffffffffffffffffffffffffff1681526020018881526020018781526020018673ffffffffffffffffffffffffffffffffffffffff1673ffffffffffffffffffffffffffffffffffffffff168152602001857bffffffffffffffffffffffffffffffffffffffffffffffffffffffff19167bffffffffffffffffffffffffffffffffffffffffffffffffffffffff1916815260200184815260200183815260200180602001828103825283818151815260200191508051906020019080838360005b83811015611470578082015181840152602081019050611455565b50505050905090810190601f16801561149d5780820380516001836020036101000a031916815260200191505b509950505050505050505050604051602081830303815290604052907bffffffffffffffffffffffffffffffffffffffffffffffffffffffff19166020820180517bffffffffffffffffffffffffffffffffffffffffffffffffffffffff83818316178352505050509050919050565b61151561191f565b60006020838161152157fe5b061461153a576020828161153157fe5b06602003820191505b81836020018181525050604051808452600081528281016020016040525082905092915050565b6017811161158e576115888160058460ff16901b60ff1617846116c890919063ffffffff16565b506116a1565b60ff81116115d0576115b3601860058460ff16901b17846116c890919063ffffffff16565b506115ca816001856116e89092919063ffffffff16565b506116a0565b61ffff8111611613576115f6601960058460ff16901b17846116c890919063ffffffff16565b5061160d816002856116e89092919063ffffffff16565b5061169f565b63ffffffff81116116585761163b601a60058460ff16901b17846116c890919063ffffffff16565b50611652816004856116e89092919063ffffffff16565b5061169e565b67ffffffffffffffff811161169d57611684601b60058460ff16901b17846116c890919063ffffffff16565b5061169b816008856116e89092919063ffffffff16565b505b5b5b5b5b505050565b6116ae61191f565b6116c08384600001515184855161170a565b905092915050565b6116d061191f565b6116e083846000015151846117c3565b905092915050565b6116f061191f565b611701848560000151518585611811565b90509392505050565b61171261191f565b825182111561172057600080fd5b8460200151828501111561174b5761174a8560026117448860200151888701611872565b0261188e565b5b60008086518051876020830101935080888701111561176a5787860182525b60208701925050505b602084106117965780518252602082019150602081019050602084039350611773565b60006001856020036101000a03905080198251168184511681811785525050879350505050949350505050565b6117cb61191f565b836020015183106117e8576117e784600286602001510261188e565b5b8351805160208583010184815381861415611804576001820183525b5050508390509392505050565b61181961191f565b84602001518483011115611837576118368560028685010261188e565b5b60006001836101000a03905085518386820101858319825116178152815185880111156118645784870182525b505085915050949350505050565b60008183111561188457829050611888565b8190505b92915050565b6060826000015190506118a1838361150d565b506118ac83826116a6565b50505050565b6040518060a0016040528060008019168152602001600073ffffffffffffffffffffffffffffffffffffffff16815260200160007bffffffffffffffffffffffffffffffffffffffffffffffffffffffff191681526020016000815260200161191961191f565b81525090565b60405180604001604052806060815260200160008152509056fe68747470733a2f2f6170692e7768682e62757a7a2f6170692f61737365742f76616c69643f69643d756e61626c6520746f207472616e73666572416e6443616c6c20746f206f7261636c65a264697066735822122020be854b0d25e394dac9de625e142f4dfbca12263cf0af271af3f501df90b86b64736f6c63430006060033a2646970667358221220f3b8f3fa8e2010081ff92daac331d63a96d84ffe2b7fb260e52bd4b2218eca6d64736f6c63430006060033",
  "immutableReferences": {},
  "source": "// SPDX-License-Identifier: MIT\npragma solidity ^0.6.0;\n\nimport {AssetDemo} from \"./AssetDemo.sol\";\nimport \"@chainlink/contracts/src/v0.6/ChainlinkClient.sol\";\n\n/**\n  DID Registry\n */\ncontract Registry is ChainlinkClient {\n    constructor(address _link) public {\n        if (_link == address(0)) {\n            setPublicChainlinkToken();\n        } else {\n            setChainlinkToken(_link);\n        }\n    }\n\n    // did => ipfs\n    mapping(string => string) public id2isuuer;\n    mapping(string => address) public id2contract;\n\n    /**\n         ID   document \n    */\n    function resolveDocuemnt(string memory id)\n        public\n        view\n        returns (string memory)\n    {\n        return id2isuuer[id];\n    }\n\n    function register(string memory _id, string memory _hash) public {\n        id2isuuer[_id] = _hash;\n        return;\n    }\n\n    function create(\n        string memory _did,\n        address _owner,\n        string memory _imgUrl,\n        string memory _name,\n        string memory _hash\n    ) public {\n        AssetDemo asset = new AssetDemo(\n            chainlinkTokenAddress(),\n            _did,\n            _owner,\n            _imgUrl,\n            _name,\n            _hash\n        );\n        id2isuuer[_did] = _hash;\n        id2contract[_did] = address(asset);\n    }\n\n    receive() external payable {}\n\n    fallback() external payable {}\n}\n",
  "sourcePath": "/Users/ywb/Documents/github/chainlink-docker/blockchain/contracts/Registry.sol",
  "compiler": {
    "name": "solc",
    "version": "0.6.6+commit.6c089d02.Emscripten.clang"
  },
  "schemaVersion": "3.4.3",
  "updatedAt": "2022-04-03T04:07:15.861Z",
  "devdoc": {
    "methods": {}
  },
  "userdoc": {
    "methods": {
      "resolveDocuemnt(string)": {
        "notice": " ID   document "
      }
    },
    "notice": "DID Registry"
  }
}